:100000004DC600000C94701E0C94971E6FC6000025
:100010006DC600006BC600000C941F0867C6000088
:1000200065C6000063C6000061C600005FC6000030
:100030005DC600005BC6000059C6000057C6000040
:100040000C94E71E53C600000C948D1D0C94BF1D2C
:100050004DC600004BC6000049C6000047C6000060
:1000600045C6000043C600004E6F64652072656798
:10007000697374726174696F6E3D25640A0052651C
:1000800071756573742072656769737472617469E0
:100090006F6E2E2E2E0A00496E697420636F6D708C
:1000A0006C6574652C2069643D25642C2070617238
:1000B000656E743D25642C2064697374616E63659C
:1000C0003D25642C20726567697374726174696F71
:1000D0006E3D25640A005374617274696E67207303
:1000E000656E736F722028524E4E4E41532C203253
:1000F0002E302E302D62657461290A002573545309
:10010000503A4D53473A53454E442025642D2564BB
:100110002D25642D256420733D25642C633D2564C5
:100120002C743D25642C70743D25642C6C3D256435
:100130002C73673D25642C66743D25642C73743DD7
:1001400025733A25730A00215453503A4D53473AC8
:100150005349474E206661696C0A002154534D3A59
:100160004D53473A52454C204D53472C20627574ED
:10017000206E6F7420612072657065617465720A0B
:10018000005453503A4D53473A42430A0054535097
:100190003A4D53473A504F4E472052454356202838
:1001A000686F70733D2564290A005453503A4D53CB
:1001B000473A50494E474544202849443D25642C40
:1001C00020686F70733D2564290A005453503A4DDE
:1001D00053473A504152204F4B202849443D256413
:1001E0002C20646973743D2564290A005453503AE5
:1001F0004D53473A465041522028505041522046D4
:100200004F554E44290A005453503A4D53473A46ED
:1002100050415220524553202849443D25642C200A
:10022000646973743D2564290A005453503A4D5350
:10023000473A41434B206D73670A00215453503AAB
:100240004D53473A5349474E207665726966792087
:100250006661696C0A00215453503A4D53473A5035
:10026000564552206D69736D617463680A0054537A
:10027000503A4D53473A524541442025642D256458
:100280002D256420733D25642C633D25642C743D2D
:1002900025642C70743D25642C6C3D25642C73679B
:1002A0003D25643A25730A005453503A50494E474D
:1002B0003A53454E442028646573743D2564290AE9
:1002C00000215453503A53454E443A544E520A007A
:1002D000215453503A465041523A414354495645AD
:1002E00020286D7367206E6F742073656E64290A11
:1002F00000215453503A41535349474E49443A46DA
:1003000041494C202849443D2564290A0054535052
:100310003A41535349474E49443A4F4B20284944A8
:100320003D2564290A005453503A43484B55504CDC
:100330003A4641494C2028686F70733D2564290A6C
:10034000005453503A43484B55504C3A4447574356
:1003500020286F6C643D25642C6E65773D256429EB
:10036000005453503A43484B55504C3A4F4B0A00B7
:100370005453503A43484B55504C3A4F4B20284623
:100380004C444354524C290A0054534D3A5044545F
:100390000A002154534D3A4641494C5552450A00F2
:1003A0002154534D3A55504C204641494C2C205332
:1003B000544154500A0054534D3A52454144590A4D
:1003C000002154534D3A55504C3A4641494C0A008D
:1003D00054534D3A55504C3A4F4B0A0054534D3AF2
:1003E00055504C0A002154534D3A43484B49443A26
:1003F0004641494C202849443D2564290A0054536C
:100400004D3A43484B49443A4F4B202849443D25F7
:1004100064290A0054534D3A49440A002154534D6B
:100420003A465041523A4641494C0A0054534D3ADB
:10043000465041523A4F4B0A0054534D3A465041B0
:10044000520A0054534D3A524144494F3A4F4B0AD5
:10045000002154534D3A524144494F3A4641494C88
:100460000A0054534D3A494E49540A005F235C1127
:100470007A0206025D02EC017802EB01780258066E
:100480007802EC017502F0017502F0017302F201CD
:10049000710260066E02F4016F025F067002F601DF
:1004A0006D0262066C02640671025F0669027E06D6
:1004B00035029A0635029A06360299063502180266
:1004C0004D022F0236022F0235022F023502300272
:1004D00035022F023502300235022F0235029A060C
:1004E00035029B0635029A0635029A0636029106B7
:1004F0003502252388117B02040260020402600297
:10050000050265024F067802EC017902EB017802E0
:10051000FA016A02EE0175025C067202F2017202D1
:100520005D067102F401700260066E0261066E02E1
:1005300064066A0263066D0263066A026706680261
:100540007E063602990636022F0235023002350247
:100550002F0236022F023502300235022F023602F8
:100560002F0236022F0235029A0636029A0635020B
:100570009A063502930635026F23C6115E02080201
:100580005D02EB017902EF01740259067502EE017A
:100590007502F0017402F0017302F20171025E064D
:1005A0007102F8016B0260066E02F6016F026106CD
:1005B0006B0264066B0265064E0282064D022F0234
:1005C00035029A063502300235022F0235022F021B
:1005D00037022F0235022F023502300234029B0609
:1005E00035022F0235029B0635029A0635029A061D
:1005F00035029A0635029A0635029206380292238F
:100600007011730206025C0207025E0204025F02BE
:1006100054067702EF017402ED017602EF019402B5
:10062000D10173025C067502F00171025E06700270
:10063000F5016E0260066E0261066D0262066B02D3
:1006400064066B027D065102FB0169027E063502DB
:100650009906350230023402300235022F0235028B
:100660002F023502310235029A0638022C02350279
:1006700030023302A00632029B0633029E0632028B
:10068000900634028E2369118302FB015F0205028A
:10069000600210024E0275065D02EC017702ED0168
:1006A0007602EE017502F00172025D067102F2013E
:1006B00072025E066F02F5016E0261066D0261064E
:1006C0007A0254067A0264064002170269027E0624
:1006D00034029A0635029A0635022F02340230029D
:1006E00035022F0235022F0235029A0635022F02FB
:1006F0003502300234022F0235029A0635029A067C
:1007000035029A0635029206340290235D11790271
:1007100005025F0206025D02EC01780257067702CD
:10072000ED017502EF017402F0017402F101720231
:1007300060066F02F201710260066E02F5016E0240
:1007400061066E0262066B0264066B0264066A0250
:1007500066064E022E023602300234029A06350236
:100760002F0235022F023502300235022F023502E8
:10077000300235029A0635029C0633022F023502FA
:100780009A0635029A0635029A0635029206350215
:10079000AE235E117A0205025E0207025F020602C4
:1007A0005D0258067602EC017702ED017702EE0158
:1007B0007402F00173025D067202F30170025F06BB
:1007C0006F02F5016F0260066E0263066B0263063C
:1007D0006B0263066B02FB01690213023602990683
:1007E00036022F023402300235022F023502300267
:1007F00035022F0235029A0635029A0635022F027B
:1008000035029A0635029A0635029B0634029B068B
:10081000350292063502AB236311770207026102AB
:1008200003025F0205025D0258067602ED017602C0
:10083000EE017402F1017302F10172025D067102B0
:10084000F30170025F066D02F7016E0261066E022F
:1008500061066C0263066C0263066B0264066A0240
:10086000FB014D0218024C022F0236023102330204
:1008700017026902150233023002340231023402D7
:10088000990635029D0632029A0635029A0635020D
:100890009A0635029A0634029206350269239211AD
:1008A000780207025D02110250020A025C0257063A
:1008B0007702EC017702EE017502EF017402F0019C
:1008C00074025B067102F20172025E066F02F401AD
:1008D0006F0261066E026406680262066C026306BD
:1008E0006C02F9014E028806620265064D022F0273
:1008F00036022E0235022F0235022F023502300257
:10090000340283064C022F0235022F02350299066B
:100910003602990635029A06350299063602910684
:10092000350242235B11780206025E0207025E0274
:100930000E025C0250067302F0019502D2017502AC
:10094000FA016602F20171025E06700200026402A0
:100950005F066F02F40173025D066E0261066D02AE
:1009600062066C026306770258064E0217025702AF
:10097000250235022F0235029A0636022E02400267
:1009800025023402300246021F023F028F06350262
:100990009A065B0273063502300234029B0635026A
:1009A0009A063402930635020000000000000000A1
:1009B0000000000000000000000000000000000037
:1009C0000000000000000000000000000000000027
:1009D0000000000000000000000000000000000017
:1009E0000000000000000000000000000000000007
:1009F00000000000000000000000000000000000F7
:100A000000000000000000000000000000000000E6
:100A100000000000000000000000000000000000D6
:100A2000000000000000000000000000000067E679
:100A3000096A85AE67BB72F36E3C3AF54FA57F52EB
:100A40000E518C68059BABD9831F19CDE05B982FA5
:100A50008A4291443771CFFBC0B5A5DBB5E95BC2D3
:100A60005639F111F159A4823F92D55E1CAB98AA78
:100A700007D8015B8312BE853124C37D0C55745D9C
:100A8000BE72FEB1DE80A706DC9B74F19BC1C1691A
:100A90009BE48647BEEFC69DC10FCCA10C246F2CF2
:100AA000E92DAA84744ADCA9B05CDA88F97652513F
:100AB0003E986DC631A8C82703B0C77F59BFF30B56
:100AC000E0C64791A7D55163CA0667292914850A4C
:100AD000B72738211B2EFC6D2C4D130D3853547342
:100AE0000A65BB0A6A762EC9C281852C7292A1E87A
:100AF000BFA24B661AA8708B4BC2A3516CC719E8F2
:100B000092D1240699D685350EF470A06A1016C1CC
:100B1000A419086C371E4C774827B5BCB034B30C09
:100B20001C394AAAD84E4FCA9C5BF36F2E68EE82DE
:100B30008F746F63A5781478C8840802C78CFAFF95
:100B4000BE90EB6C50A4F7A3F9BEF27871C600001A
:100B5000000800020100000304070000000000007C
:100B60000000010204081020408001020408102047
:100B70000102040810200404040404040404020212
:100B80000202020203030303030300000000250026
:100B900028002B0000000000240027002A0000404D
:100BA0007A10F35A00A0724E18090010A5D4E8007C
:100BB00000E87648170000E40B54020000CA9A3B94
:100BC000000000E1F505000080969800000040421A
:100BD0000F000000A08601000000102700000000A8
:100BE000E803000000006400000000000A000000AC
:100BF00000000100000000002C76D888DC674F0858
:100C000023DFC1DFAE59E1B1B796E5E3E453C63A5D
:100C1000E651997696E8E6C28426EB898C9B62EDD4
:100C2000407C6FFCEFBC9C9F40F2BAA56FA5F4908E
:100C3000055A2AF75C936B6CF9676DC11BFCE0E405
:100C40000D47FEF520E6B500D0ED902E030094355B
:100C500077050080841E080000204E0A000000C8AE
:100C60000C333333330F986E12831141EF8D2114FF
:100C7000893BE65516CFFEE6DB18D1844B381BF7CF
:100C80007C1D901DA4BBE424203284725E2281006E
:100C9000C9F124ECA1E53D27A812ED1D11241FBECA
:100CA000CFEFD8E0DEBFCDBF11E0A0E0B1E0E0E1E2
:100CB000F1E502C005900D92AE36B107D9F724E0F8
:100CC000AEE6B1E001C01D92A138B207E1F71CE029
:100CD000CCE9DCE004C02297FE010E94B621C839AD
:100CE000D107C9F70E94731B0C94862889C9FC019F
:100CF000848184FD1DC087708330A1F4858191EFCC
:100D0000980F9430A8F09DEF980F923088F099EFEB
:100D1000980F923068F0863159F08851833040F056
:100D200080E008958430E1F7858182508430C0F7F7
:100D300081E00895089508958EBD00000DB407FE6A
:100D4000FDCF8EB50895BF92CF92DF92EF92FF92C2
:100D50000F931F93CF93DF93C82F8B01C42EB22E16
:100D600080917B04882399F03FB7F89480917B04AD
:100D7000813059F48DB3809379048DB390917A04C6
:100D8000909598239DBB3FBF02C03093790480E5C6
:100D90008CBD1DBC60E08AE00E945A208AE090E091
:100DA0000E94971F8C2FC8DFD82EE801CC20A9F015
:100DB000BB2049F08FEFC0DFD82E0115110559F087
:100DC0008883219608C07E018FEFE81AF80A88818F
:100DD000B3DFD82EE701CA94E9CF61E08AE00E9430
:100DE0005A2080917B04882361F09FB7F89420916A
:100DF0007B0480917904213019F48DBB9FBF01C021
:100E00008FBF8AE090E00E94971F8D2DDF91CF91D8
:100E10001F910F91FF90EF90DF90CF90BF900895BA
:100E2000CF93DF931F92CDB7DEB7698320E041E017
:100E3000BE016F5F7F4F87DF0F90DF91CF910895E5
:100E400060E089E00E945A206CE080E2E9CF6FE028
:100E500080E2E6DF60910A016F3F11F08AE2E0DF95
:100E600061E089E00C945A2020E040E060E070E00E
:100E70006ACFEF92FF921F93CF93DF931F92CDB76C
:100E8000DEB7182F7B0160E089E049830E945A2079
:100E900082E890E00E94971F6EE080E2C1DF84E666
:100EA00090E00E94971F612F8AE2BADF612F80E3F2
:100EB000B7DF81EED9DF20E04981B70180EA43DF67
:100EC00061E089E00E945A20EE24EA94FE2C8FEF24
:100ED000CBDF182F807351F4970121503109EF288F
:100EE00011F07901F4CFEE24EA94FE2C60E089E061
:100EF0000E945A2060E387E293DF14FF02C081EE74
:100F0000B3DFA5DF15FF03C081E0EF2809F480E01F
:100F10000F90DF91CF911F91FF90EF9008951F9355
:100F2000CF93DF93EC0121E041E060E070E080E6E8
:100F30000ADF182F813218F082EE96DF10E021E0F0
:100F4000412FBE0181E6FFDE60E487E269DF812F89
:100F5000DF91CF911F910895CF9321E041E060E0B0
:100F600070E086E0F0DEC82F21E041E060E070E054
:100F700085E0E9DE91E08C3409F090E081E0C73251
:100F800009F080E08923CF910895CF9361E089E053
:100F90000E94212061E08AE00E9421200E9490208E
:100FA00060E089E00E945A2061E08AE00E945A20B5
:100FB0006EE080E235DF65E070E080E090E00E9466
:100FC000601F63E083E22CDF6FE584E229DF6CE4DD
:100FD00085E226DF67E286E223DFBEDFC82F8823B3
:100FE00059F163E780E31CDF66E08DE319DF62E01F
:100FF00082E216DF60E081E213DF63E08CE310DF62
:101000008FEF80930B0120E045E06BE071E08BE215
:101010009ADE20E045E06BE071E08AE294DE20E0B9
:1010200045E06BE071E080E38EDE82EE1DDF81EE55
:101030001BDF60E787E2F4DE8C2FCF9108951F92CB
:101040000F920FB60F9211240F900FBE0F901F90AA
:1010500018958EE480937C0066E470E080E090E078
:101060000E94601F80917A00806480937A00809152
:101070007A0086FDFCCF209178003091790040E025
:1010800050E064EB7BE281E190E00E946521C901C0
:101090000895F8948FEF86BB10928500109284001B
:1010A0001092800010928200209160003DE088E163
:1010B00090E00FB6F894A895809360000FBE30932F
:1010C000600080916000806480936000A89585E056
:1010D000809381008091600087FFFCCF1092810097
:1010E000A8958091600088618093600020936000E3
:1010F0007894609184007091850080E090E02BE00E
:10110000660F771F881F991F2A95D1F720EA36E8C6
:1011100041E050E00E946521C9010895CF93DF931B
:1011200000D0CDB7DEB720917D0430917E0421152B
:10113000310511F421E834E0CE010196821B930BB6
:101140000F900F90DF91CF910895FB01480F591F29
:1011500020E030E084179507A9F0DC017D91CD01F6
:101160006191761307C061E0232B09F460E0262F1C
:1011700030E0F0CF232B19F022E030E0EBCF23E07A
:1011800030E0E8CF81E090E0232B11F480E090E0A4
:101190009195819591090895CF93DF93EC0140E2F9
:1011A00050E06EE27AE08F5B9F4F0E948222FE0148
:1011B000EF59FF4F1082118212821382C05CDF4F01
:1011C0001882DF91CF9108952F923F924F925F92B4
:1011D0006F927F928F929F92AF92BF92CF92DF9247
:1011E000EF92FF920F931F93CF93DF93CDB7DEB7AC
:1011F000EF970FB6F894DEBF0FBECDBF9FAF8EAF97
:101200009C012F5B3F4FD9018D919D910D90BC9119
:10121000A02D8C8F9D8FAE8FBF8F2EAD3FAD2B5BE2
:101220003F4FD9018D919D910D90BC91A02D88A328
:1012300099A3AAA3BBA32EAD3FAD275B3F4FD90116
:101240008D919D910D90BC91A02D8CA39DA3AEA3DB
:10125000BFA32EAD3FAD235B3F4FD9018D919D9133
:101260000D90BC91A02D88A799A7AAA7BBA72EADCA
:101270003FAD2F5A3F4FD9018D919D910D90BC915B
:10128000A02D8CA79DA7AEA7BFA72EAD3FAD2B5A13
:101290003F4FD9018D919D910D90BC91A02D88ABB0
:1012A00099ABAAABBBAB2EAD3FAD275A3F4FD9018F
:1012B0008D919D910D90BC91A02D8CAB9DABAEAB53
:1012C000BFAB2EAD3FAD235A3F4FD9018D919D91BC
:1012D0000D90BC91A02D88AF99AFAAAFBBAF2EE403
:1012E0003AE03B8F2A8F4C015D018CA99DA9AEA9E4
:1012F000BFA98A8B9B8BAC8BBD8B28A939A94AA926
:101300005BA92E8B3F8B488F598F8CA59DA5AEA5D1
:10131000BFA589839A83AB83BC8328A539A54AA539
:101320005BA52E873F87488B598B8CA19DA1AEA1D1
:10133000BFA18A879B87AC87BD8728A139A14AA115
:101340005BA12E833F83488759874C8D5D8D6E8DC1
:101350007F8DAAEF2A2E33243A941D82C980DA8029
:10136000EB80FC803BE0F694E794D794C7943A95E1
:10137000D1F789819A81AB81BC81E5E1880F991F02
:10138000AA1FBB1FEA95D1F7C82AD92AEA2AFB2A45
:1013900009811A812B813C81F6E0369527951795B6
:1013A0000795FA95D1F749805A806B807C80AAE135
:1013B000440C551C661C771CAA95D1F704291529E5
:1013C00026293729C026D126E226F32609811A814B
:1013D0002B813C81B9E13695279517950795BA95EC
:1013E000D1F749805A806B807C8087E0440C551C83
:1013F000661C771C8A95D1F70429152926293729D7
:10140000C026D126E226F3260A891B892C893D892C
:101410008E899F89A88DB98D082719272A273B27F0
:1014200089819A81AB81BC81082319232A233B231C
:101430008A899B89AC89BD89082719272A273B27D8
:10144000EA8DFB8D4590559065907490C00ED11E2D
:10145000E21EF31EC40CD51CE61CF71C8D818F7098
:10146000EEADFFAD94E0899FE00DF11D1124808168
:101470009181A281B381C80ED91EEA1EFB1EC80C41
:10148000D91CEA1CFB1C4A015B019DE0B694A794A1
:10149000979487949A95D1F7DB01CA0123E1880FCD
:1014A000991FAA1FBB1F2A95D1F7882A992AAA2A11
:1014B000BB2A8A019B01E2E036952795179507958F
:1014C000EA95D1F72A013B01FEE1440C551C661C4C
:1014D000771CFA95D1F70429152926293729802662
:1014E0009126A226B3268A019B01A6E1369527956F
:1014F00017950795AA95D1F72A013B01BAE0440C4C
:10150000551C661C771CBA95D1F704291529262984
:10151000372980269126A226B3260E811F81288591
:1015200039858A859B85AC85BD85082B192B2A2B8F
:101530003B2B04231523262337234E805F806884AA
:101540007984482259226A227B22042915292629D6
:101550003729080D191D2A1D3B1D8E859F85A889D9
:10156000B9898C0D9D1DAE1DBF1D8E879F87A88BD1
:10157000B98B0C0D1D1D2E1D3F1D9D819F5F9D83F1
:10158000903409F405C18D81803108F4C6C08F7094
:10159000AEADBFADE4E08E9FA00DB11D1124BDAF77
:1015A000ACAFF101EF70FF27EE0FFF1FEE0FFF1F33
:1015B0008EAD9FADE80FF91FCD90DD90ED90FC90C2
:1015C00080819181A281B381C80ED91EEA1EFB1EC3
:1015D000F1013596EF70FF27EE0FFF1FEE0FFF1F93
:1015E000AEADBFADEA0FFB1F4080518062807380BB
:1015F00053014201E1E1B694A79497948794EA9548
:10160000D1F7D301C201FFE0880F991FAA1FBB1FAA
:10161000FA95D1F7882A992AAA2ABB2AD301C201AE
:10162000EAE0B695A79597958795EA95D1F788262C
:101630009926AA26BB26D301C201F3E1B695A79548
:1016400097958795FA95D1F7EDE0440C551C661CEB
:10165000771CEA95D1F784299529A629B7298826E8
:101660009926AA26BB26C80CD91CEA1CFB1CF10132
:101670003897EF70FF27EE0FFF1FEE0FFF1F8EADA5
:101680009FADE80FF91F4080518062807380530145
:101690004201B7E0B694A79497948794BA95D1F78E
:1016A000D301C201E9E1880F991FAA1FBB1FEA9568
:1016B000D1F7882A992AAA2ABB2AD301C201F3E0CA
:1016C000B695A79597958795FA95D1F78826992687
:1016D000AA26BB26D301C201E2E1B695A79597954C
:1016E0008795EA95D1F7FEE0440C551C661C771CE3
:1016F000FA95D1F784299529A629B729882699260C
:10170000AA26BB26C80CD91CEA1CFB1CACADBDAD7F
:10171000CD92DD92ED92FC9213978A8D9B8D04966B
:101720009B8F8A8F9FEF291A390A8A889B88AC88F9
:10173000BD888E899F89A88DB98D8A8B9B8BAC8B38
:10174000BD8B89819A81AB81BC818E8B9F8BA88F49
:10175000B98F8E859F85A889B98989839A83AB8340
:10176000BC838A859B85AC85BD858E879F87A88B2A
:10177000B98B8E819F81A885B9858A879B87AC8725
:10178000BD874E835F8368877987B901A801E6CD5D
:10179000EEADFFADEF5BFF4F8C8D9D8DAE8DBF8DA0
:1017A000080F191F2A1F3B1F0083118322833383D5
:1017B000EEADFFADEB5BFF4F88A199A1AAA1BBA144
:1017C000480F591F6A1F7B1F4083518362837383B5
:1017D0006EAD7FAD675B7F4F8E819F81A885B98598
:1017E0002CA13DA14EA15FA1820F931FA41FB51F85
:1017F000FB0180839183A283B3836EAD7FAD635B76
:101800007F4F8A859B85AC85BD8528A539A54AA5CE
:101810005BA5820F931FA41FB51FFB0180839183DB
:10182000A283B3836EAD7FAD6F5A7F4F8E859F8548
:10183000A889B9892CA53DA54EA55FA5820F931F48
:10184000A41FB51FFB0180839183A283B3836EAD78
:101850007FAD6B5A7F4F89819A81AB81BC8128A96A
:1018600039A94AA95BA9820F931FA41FB51FFB01C9
:1018700080839183A283B3836EAD7FAD675A7F4F20
:101880008E899F89A88DB98D2CA93DA94EA95FA9E4
:10189000820F931FA41FB51FFB0180839183A28336
:1018A000B3836EAD7FAD635A7F4F8A899B89AC89C4
:1018B000BD8928AD39AD4AAD5BAD820F931FA41F22
:1018C000B51FFB0180839183A283B383EF960FB68C
:1018D000F894DEBF0FBECDBFDF91CF911F910F9166
:1018E000FF90EF90DF90CF90BF90AF909F908F9040
:1018F0007F906F905F904F903F902F900895CF937F
:10190000DF93EC01C05CDF4F388123E02327FC012B
:10191000E20FF11D608321E0230F2883203411F4AE
:1019200053DC1882DF91CF910895262FFC01EF59E7
:10193000FF4F40815181628173814F5F5F4F6F4FD5
:101940007F4F4083518362837383622FD8CF0F937D
:101950001F93CF93DF93EC0160E8D1DF8E01005C31
:101960001F4FF801808160E0883319F0CE01C7DF96
:10197000F8CFCE01C4DF60E0CE01C1DF60E0CE0170
:10198000BEDF8E010F591F4FF80160817181828186
:101990009381BDE19695879577956795BA95D1F72F
:1019A000CE01ADDFF801608171818281938125E1F3
:1019B00096958795779567952A95D1F7CE019FDF04
:1019C000F80160817181828193813DE096958795D0
:1019D000779567953A95D1F7CE0191DFF80160814F
:1019E00071818281938145E096958795779567957A
:1019F0004A95D1F7CE0183DFF8016081660F660F4B
:101A0000660FCE01DF91CF911F910F9178CFCF93C9
:101A1000DF93EC019CDFAE0128E030E0FA01EF5BE0
:101A2000FF4F60817181828193810E94A321608335
:101A3000718382839383215031094C5F5F4F21155D
:101A4000310561F7CE018F5B9F4FDF91CF910895F4
:101A5000AF92BF92CF92DF92EF92FF920F931F93BC
:101A6000CF93DF9300D000D0CDB7DEB75C017C010F
:101A700085E6E80EF11C80E4F70111928A95E9F7FA
:101A80004134510514F1C50149835A836B837C832A
:101A900083DB6B81062F7C81172F49815A81680176
:101AA000C40ED51E0C151D0531F0F80161918F0192
:101AB000C5013BDFF7CFC501AADF20E2FC01D7015A
:101AC00001900D922A95E1F703C0C7010E948B2275
:101AD000C50162DB85017501F0E4EF0EF11C56E3F0
:101AE000D52EF801EB59FF4F60816D25C5011DDF33
:101AF0000F5F1F4F0E151F05A1F70F900F900F904E
:101B00000F90DF91CF911F910F91FF90EF90DF9099
:101B1000CF90BF90AF900895DF92EF92FF920F9316
:101B20001F93CF93DF93EC0172DFDE01AB55BF4F04
:101B300020E2FC0101900D922A95E1F7CE012CDB09
:101B40007E0180E4E80EF11C8E016CE5D62EF801D2
:101B5000EB59FF4F60816D25CE01E7DE0F5F1F4F10
:101B60000E151F05A1F77E0180E2E80EF11C8E0123
:101B7000F801EB55FF4F6081CE01D7DE0F5F1F4F9D
:101B80000E151F05A9F7CE01DF91CF911F910F917F
:101B9000FF90EF90DF903BCF1F93CF93DF93162FF3
:101BA00020E2E7E4F2E0DF011D922A95E9F7FC016B
:101BB000438146954695469550E04A5F5F4FBC018C
:101BC0006F5F7F4F87E492E00E948B228CEA92E065
:101BD000E3DAC7E4D2E069918CEA92E0A6DEF2E0B3
:101BE000C736DF07C1F765E18CEA92E09EDE62E06E
:101BF0008CEA92E09ADE68E08CEA92E096DE60E0A1
:101C00008CEA92E092DE6EEE8CEA92E08EDE61E08B
:101C10008CEA92E08ADE63E28CEA92E086DEC9E139
:101C2000D0E060E08CEA92E080DE21972097C9F74F
:101C3000C0E0D0E0FE01112319F0E959FD4F02C0C8
:101C4000E957FD4F60818CEA92E06FDE2196C03249
:101C5000D10581F7112319F087E692E002C087E8E9
:101C600092E040E250E06AEA70E00E9494228CEA3E
:101C700092E0CDDE20E2FC01A7E4B2E001900D92FB
:101C80002A95E1F740E250E067E272E08CEA92E0E8
:101C9000DFDEC0E2D0E060E08CEA92E046DE219731
:101CA0002097C9F7C7E4D2E069918CEA92E03DDE63
:101CB00082E0C736D807C1F761E18CEA92E035DEF1
:101CC00064E08CEA92E031DE60E08CEA92E02DDEA6
:101CD00060E08CEA92E029DECBE0D0E060E08CEAC4
:101CE00092E023DE21972097C9F76EEE8CEA92E00E
:101CF0001CDEC4E0D0E060E08CEA92E016DE2197C2
:101D00002097C9F761E08CEA92E00FDE63E28CEA8B
:101D100092E00BDE60E08CEA92E007DE60E08CEAA5
:101D200092E003DE8CEA92E0F7DE20E2FC01A7E01D
:101D3000B2E001900D922A95E1F7DF91CF911F91CA
:101D4000089587E00E94DB1FBC01882777FD8095FE
:101D5000982F0E94BE1E40E250E063E671E087E2E9
:101D600092E00E94052549E050E063E871E08EEFC3
:101D700091E00C94052540E250E063E271E083EBD2
:101D800093E00E94052540E250E063E471E083E9BE
:101D900093E00E940525D5CF0F931F938091A70252
:101DA000811102C081E035C00E94311F0091A8025C
:101DB0001091A9022091AA023091AB02601771071D
:101DC0008207930798F00E94311F0091A80210919A
:101DD000A9022091AA023091AB0208571C4E2F4F46
:101DE0003F4F0617170728073907E0F640E250E093
:101DF0006AEA70E087E692E00E94942240E250E0B6
:101E00006AEA70E087E892E00E9494221092A702AA
:101E100080E01F910F910895BFCFFC01379689E1B3
:101E2000A7E6B2E001900D928A95E1F747E050E015
:101E30006AEA70E080E892E00C9494220F931F937A
:101E4000CF93DF93EC018B81803C08F05BC0846012
:101E50008B8361E0CE01A0DE2A81E22FF0E073E007
:101E6000F595E7957A95E1F7ED56FC4F808190E086
:101E700080959095277002C0959587952A95E2F7F1
:101E800080FF2AC08CEA92E087D907E012E0F801CF
:101E900061918F018CEA92E048DDF2E007321F0782
:101EA000B1F769818CEA92E040DD0EEF11E0F801B4
:101EB00061918F018CEA92E038DDF2E007301F0774
:101EC000B1F78CEA92E0A3DD20E2FC01A7E0B2E0EA
:101ED00001900D922A95E1F781E0809307022B8112
:101EE00026952695269530E0C901079649E150E0F0
:101EF000421B530B67E072E08C0F9D1F0E948B22E8
:101F000081E001C080E0DF91CF911F910F91089592
:101F10001F93CF93DF93EC018091A702882331F1C7
:101F20003BDF882319F11092A7028B818695869555
:101F30008695FE01E80FF11D17811130B9F460E0BC
:101F4000CE012ADE109307028B81869586958695B1
:101F500090E049E150E0481B590B079667E072E0BA
:101F60008C0F9D1FF2D821E0892B09F020E0822FF1
:101F7000DF91CF911F910895CF93DF93EC019A8168
:101F80008091ED0198130EC0CE010E947706811159
:101F900009C08B8182FF08C0CE01BADF9B819B7F85
:101FA0009B8303C081E001C080E0DF91CF91089561
:101FB0002091F1013091F2014091F8012817390781
:101FC00041F0407F4093F8019093F2018093F1013A
:101FD00008C091E0940F9F70842F807F892B80939D
:101FE000F801E091F101F091F2010190F081E02D12
:101FF000309709F009950E94311F6093F3017093A7
:10200000F4018093F5019093F60108950F931F93C7
:102010000E94311F0091F3011091F4012091F5010C
:102020003091F601601B710B820B930B1F910F9186
:102030000895ECDF613177428105910518F084E263
:1020400091E0B6CF0895E091F101F091F2010280A4
:10205000F381E02D309709F00994089580E191E033
:102060009093F2018093F10184E291E0A1CF8F3F40
:1020700051F080930A0163E082E20E94100761E060
:1020800081E20E9410070C9427076F706A3010F4E9
:1020900080E301C087E3860F08959F92AF92BF92BD
:1020A000CF92DF92EF92FF920F931F93CF93DF9324
:1020B000EC018B01912C8B818695869586959816DF
:1020C00028F5C92CD12C7601EE0CFF1C5801AE0C62
:1020D000BF1CCC0EDD1EF6016781772767FD70956A
:1020E000A4E075956795AA95E1F7CE01CEDFF501DD
:1020F0008083FFEFEF1AFF0AE00EF11EF601678101
:10210000CE01C3DFF70180839394D5CFF801E80FA8
:10211000F11DE80FF11D1082C801DF91CF911F91D1
:102120000F91FF90EF90DF90CF90BF90AF909F9076
:1021300008950F931F93CF93DF938C01EB01FC0164
:102140008481829586958770209709F461C08111FA
:1021500015C0438146954695469550E0B801695FA4
:102160007F4FCE010E949B22F80183818695869540
:102170008695FE01E80FF11D10824DC0813029F4D3
:10218000F80187814AE090E006C0823039F44AE0E5
:10219000F801878190850E94AA223DC0833039F4DE
:1021A0004AE0F801878190850E94002334C0843082
:1021B00051F4F80167817085818592852AE0AE012E
:1021C0000E94B42228C0853051F4F80167817085DF
:1021D000818592852AE0AE010E94DF221CC08730F3
:1021E00079F4F8012385293008F028E0F8016781A7
:1021F0007085818592858E0142E00E94C9210BC0C5
:10220000863049F4C801DF91CF911F910F9145CFDE
:1022100080E090E001C0CE01DF91CF911F910F913E
:102220000895FC012481229526952770213011F410
:1022300087810895211103C007960C943F2280E006
:102240000895EFDF91E0811101C090E0892F08959A
:10225000FC012481229526952770253029F4678179
:102260007085818592850895211103C007960C948D
:102270005C2260E070E0CB010895FC01248122958E
:1022800026952770223019F48781908508952111B1
:1022900003C007960C943F2280E090E00895CF930E
:1022A000DF93EC018C818F71806C8C83842F90E0A4
:1022B0009C01B3E0220F331FBA95E1F73B813770E1
:1022C000322B3B83493110F4AC0102C049E150E0AC
:1022D000CE0107960E948B22CE01DF91CF91089507
:1022E000CF92DF92EF92FF92CF93DF937C018CEA43
:1022F00092E00E94CC08C0E2D0E060E071E080E0B3
:1023000090E00E94C51ED62E0E94311F6D258CEADA
:1023100092E00BDB2197209781F78CEA92E077DB44
:1023200029E1FC01A7E8B2E001900D922A95E1F7BE
:1023300047E050E06AEA70E080EA92E00E9494226E
:1023400049E167E872E0C701AADF81E08093A70254
:102350000E94311F6B017C016093A8027093A90257
:102360008093AA029093AB020E94311F28E8C20E0C
:1023700023E1D21EE11CF11CC616D706E806F906B9
:1023800040F41092A8021092A9021092AA02109290
:10239000AB0281E0DF91CF91FF90EF90DF90CF9083
:1023A00008950F931F93CF93DF93EC01611571058F
:1023B00061F0FB0101900020E9F73197E61BF70B74
:1023C000E931F10518F0E9E101C0E0E00E2F10E07D
:1023D000C80123E0880F991F2A95E1F79B81977028
:1023E000982B9B838C818F718C83EE2329F0A8011D
:1023F000CE0107960E949B22FE01E00FF11F17827B
:10240000CE01DF91CF911F910F910895FC0183813F
:1024100087708860838384818F71806284836783FF
:10242000CF010895FC0184818F71806A8483838148
:102430008770806283834783508761877287CF016B
:102440000895FC0184818F71806684838381877005
:102450008061838370876783CF010895CF93DF9373
:10246000CDB7DEB7C658D1090FB6F894DEBF0FBEA0
:10247000CDBF20916F01211103C021E020936F0196
:1024800082309105E8F082309105E9F083309105C2
:10249000E9F084309105E9F085309105E9F0863066
:1024A0009105E9F087309105E9F088309105E9F070
:1024B00089309105E9F00B97F1F48CE694E01DC0AA
:1024C00082E299E01AC08CE998E017C086E198E0B2
:1024D00014C080E997E011C08AE097E00EC084E85C
:1024E00096E00BC08EEF95E008C088E795E005C048
:1024F00082EF94E002C088EA99E0DE0111969E0125
:1025000029573F4FBD01FC01459154914D935D9377
:102510000296A217B307B9F726E230E043E450E091
:102520008EE691E00E943821CA57DF4F0FB6F8942B
:10253000DEBF0FBECDBFDF91CF910895FC01258195
:10254000213229F4248124FD02C097DE87CF08952B
:10255000109274031092CE011092AD010895CF93A2
:10256000DF93CDB7DEB7CC52D1400FB6F894DEBFC3
:102570000FBECDBFFE01EF5CFE4F419151919F0117
:102580006BE271E0CE0101960E941923BE016F5FDC
:102590007F4F83ED93E00E946E1E83ED93E00E94D7
:1025A000AE1CC45DDE4F0FB6F894DEBF0FBECDBFCC
:1025B000DF91CF9108952ADD613D77408105910536
:1025C00020F48091F70181FF08958091EE018F3F03
:1025D000B9F08CE294E09F938F93C1DF8091F70173
:1025E0008E7F8093F7010F900F9080E090E0892B11
:1025F00021F085E090E00E9400008CE191E020C095
:1026000005DD613D774081059105D8F08091F801A5
:102610008F7090E003971CF480E291E011C08CE190
:1026200094E09F938F939BDF0F900F9080E090E05A
:10263000892B21F088E690E00E94000080E191E083
:10264000B7CC08958091ED018F3FB1F01F928F9329
:102650008EEF93E09F938F9382DF0F900F900F90F8
:102660000F9080E090E0892B21F087E090E00E94BD
:10267000000088E191E026C0C9DC613D774081051A
:10268000910508F18091F8018F7090E003971CF498
:102690008CE191E017C08091ED011F928F9385EE40
:1026A00093E09F938F935BDF0F900F900F900F90AD
:1026B00080E090E0892B21F089E690E00E94000004
:1026C00080E191E075CC089586EB93E09F938F9322
:1026D00046DFE7EFF1E08081846080830F900F9008
:1026E00008958091F80182958F7090E0069764F0CC
:1026F00080EA93E09F938F9332DF8091F8018F708F
:102700008093F8010F900F90089582E993E09F93D2
:102710008F9325DF8091F7018B7F8F7E8093F70168
:102720000F900F9080E090E0892B21F087E690E0F9
:102730000E94000089E893E09F938F9310DF0F9031
:102740000F900C942007CF93C82F8FEF8C0F8E3FE4
:10275000B0F4C093ED018C2F8ADC6C2F80E090E008
:102760000E9415251F92CF938DE093E09F938F9346
:10277000F6DE0F900F900F900F90CF9108951F925B
:10278000CF9381EF92E09F938F93E9DE0F900F90AC
:102790000F900F9080E090E0892B21F08CE690E084
:1027A0000E94000080E191E0CF9102CC82E694E0AB
:1027B0009F938F93D4DE8091F8018F708093F801FE
:1027C0008091F701877F8F7E8093F7011092FA0145
:1027D0001092FB011092FC011092FD0143E050E0C9
:1027E00060E070E08DEE91E00E9405250E94C50733
:1027F0000F900F90811112C081E594E09F938F9309
:10280000AEDE0F900F9080E090E0892B21F087E6FC
:1028100090E00E94000080E191E013C083E494E026
:102820009F938F939CDE8091F70180618093F701E5
:102830008091ED010F900F908F3F09F084DF80E2CF
:1028400091E0B6CB2091F70122FD6BC281EC92E0C2
:102850009F938F9384DE0F900F9080E00895F2CFC6
:10286000D5DBAB01BC018091ED018093AC011092EE
:10287000AD018FEF8093B10186E18093B001EFEA63
:10288000F1E08081807E836080838BEA91E0CADD05
:10289000E6CF962F8F3F19F46DE271E001C0BA01C7
:1028A0003091ED013093AC011092AD018093B101F4
:1028B0009093B00188E0289F900111248091AF018E
:1028C000807F822B8F7E8093AF018BEA91E069DD60
:1028D000C6CF0F931F93CF93DF931F92CDB7DEB771
:1028E0008B010097F9F02091ED012093AC0110923B
:1028F000AD012FEF2093B1012BE02093B001509157
:10290000AF01507F536068E0469F90011124522B25
:102910005F7E5093AF01BC018BEA91E0498341DDBA
:102920009EDF49810115110511F18091ED01809320
:10293000AC011092AD018FEF8093B1018CE08093D8
:10294000B0018091AF01807F836098E0499FA00132
:102950001124842B8F7E8093AF01B8018BEA91E024
:1029600020DD0F90DF91CF911F910F9178CF0F90C5
:10297000DF91CF911F910F91089540E068E371E0DE
:1029800085E491E0A6CFCF93DF93EC0129818C8180
:102990008770833009F076C08D818031A9F4CE0133
:1029A0009FDC882379F089819091ED0199838A8356
:1029B0008FEF8E8381E18D838C81807E83608C8319
:1029C000CE0140DF81E05FC08F3009F049C08F81C8
:1029D0008130C1F73885E22FF0E02770DF0153E046
:1029E000B595A7955A95E1F7AD54BC4F81E090E0BD
:1029F000022E01C0880F0A94EAF730FF05C08095C7
:102A00009C9189238C9303C09C91982B9C9343E0C9
:102A1000F595E7954A95E1F7ED56FC4F81E090E09A
:102A2000022E01C0880F0A94EAF731FF05C0809595
:102A300090818923808303C09081982B908340E20A
:102A400050E063E271E083EB93E00E94272540E2CF
:102A500050E063E471E083E993E00E942725B2CF60
:102A6000813181F4809174032813ACCFCE01D5D984
:102A700082E793E0E3D9882309F4A4CF91E090930F
:102A8000710301C080E0DF91CF910895CF92DF9272
:102A9000EF92FF920F931F93CF93DF93EC010A8184
:102AA000E02FF0E063E0F595E7956A95E1F7ED54E6
:102AB000FC4F808190E080959095202F277002C078
:102AC000959587952A95E2F719819091ED0180FF00
:102AD00041C019133FC0CE010E94770681113FC04B
:102AE000109271038E81109373030093740380938B
:102AF000780380E18093770380917603807E836002
:102B0000809376036DE571E082E793E04ADC9ADE1C
:102B1000182F811102C010E03BC00E94311F6B01D1
:102B20007C0181E2FE01A2E7B3E001900D928A955B
:102B3000E1F70E94311F6C197D098E099F096838E1
:102B400073418105910568F480917103811109C079
:102B500003D3EFCF911303C08B818B7F8B8311E065
:102B600017C00E94311F6C197D098E099F096938B1
:102B700073418105910578F680917103813059F692
:102B800081E2E2E7F3E0DE0101900D928A95E1F740
:102B9000812FDF91CF911F910F91FF90EF90DF90E8
:102BA000CF9008957F928F929F92AF92BF92CF92D3
:102BB000DF92EF92FF920F931F93CF93DF931F92B9
:102BC000CDB7DEB7182F4B01FB0183818C7F82606C
:102BD00083838091ED018083CB0158DF082F811121
:102BE00011C027E431E03F932F93B9DC0F900F9091
:102BF00020E030E0232B09F484C08AE690E00E94B4
:102C000000007FC0F401438142FD04C04695469513
:102C1000469501C040E220E030E0232B31F080E017
:102C200090E049830E9400004981242F30E02A313E
:102C3000310514F4495F01C040E2B401812F0E94C4
:102C40003907F82E67E771E0C40173DA1F3F29F0F6
:102C5000FF2031F049E551E005C046E551E002C0F2
:102C600041E551E06091F80162956F70F4012381B4
:102C700022FBBB24B0F8C22EC694C694C69424810D
:102C8000D22ED294D69477E0D722E580B22FB770B7
:102C9000A681A28070807181F11002C01F3F19F4DB
:102CA0002DE531E002C02CE531E09F938F935F93D7
:102CB0004F931F926F931F92BF921F92CF921F92BA
:102CC000DF921F92EF921F92BF931F92AF931F92BA
:102CD000AF921F921F931F927F921F927F933F93F9
:102CE0002F932CEF30E03F932F9339DC0FB6F894FD
:102CF000DEBF0FBECDBFF11004C001E01F3F09F0E1
:102D000000E0802F0F90DF91CF911F910F91FF90E6
:102D1000EF90DF90CF90BF90AF909F908F907F907B
:102D20000895CF93BC01FC0182819091F70190FF3F
:102D30000AC08F3F69F080ED92E09F938F930FDC84
:102D40000F900F901BC08F3F19F0C091EE0101C092
:102D5000CFEF8C2F27DF9091EE01C91317C081119F
:102D60000FC080E090E0892B21F085E690E00E9482
:102D700000008091F801805F8093F80180E006C038
:102D80008091F8018F708093F80181E0CF910895D0
:102D9000DF92EF92FF920F931F93CF93DF9300D0B8
:102DA000CDB7DEB739D88CEC91E00E948F0780E078
:102DB00090E0892B21F081E090E00E940000F090EB
:102DC000D001D090D101E090CD010091CC011091C3
:102DD000CE0167E771E08CEC91E0ABD93091CF0187
:102DE0002091D0019F938F9332FB882780F91F9207
:102DF0008F933695369536951F923F93822F829505
:102E0000869587701F928F931F92DF9227701F9273
:102E10002F938091D2011F928F931F921F931F9225
:102E20000F931F92EF928EE692E09F938F9397DB22
:102E30008091CF0183700FB6F894DEBF0FBECDBF77
:102E4000823059F080E090E0892B21F08BE690E011
:102E50000E94000086E592E057C18CEC91E08CD88E
:102E600081110BC080E090E0892B21F08AE690E090
:102E70000E9400008BE392E047C13F2D3770F32E94
:102E80008091ED011813F8C0E091CF018E2F87706B
:102E9000E695E695E695E93120F4EE0FEE0FEE0F9C
:102EA00001C0E8ECE82BE093CF01E695E695E695C6
:102EB000F0E0E453FE4F17828091D00183FF1DC0E4
:102EC00081E2ECECF1E0ABEAB1E001900D928A9581
:102ED000E1F78091AF01877F80618093AF0110930C
:102EE000AC01E092AD018AE292E09F938F9337DBD1
:102EF0008BEA91E0A7DC0F900F908091D00184FDC8
:102F0000AAC083E0F812A7C08CEC91E03CDD8111EF
:102F100000C1E4E0DE120DC08CEC91E082D90F908C
:102F20000F90DF91CF911F910F91FF90EF90DF9065
:102F30000ACCF8E0DF1245C08CEC91E072D91F9208
:102F40008F931F92EF9227E032E03F932F938A8373
:102F500006DB0F900F900F900F900F900F908A81CB
:102F60008F3F09F4D6C011E0180F1F3F21F0809168
:102F7000EF01181710F0E110CCC08091F70181FD2E
:102F8000C8C0E1100AC082608093F7012CEE31E0E6
:102F90003F932F93E4DA0F900F901093EF01E0929C
:102FA000EE011F921F931F92EF928BEC91E09F9383
:102FB0008F93D5DA0F900F900F900F900F900F9086
:102FC000A8C028E1D21229C08CEC91E02AD91F9226
:102FD0008F931F92EF928AEA91E09F938F93BFDACB
:102FE0008091ED018093AC01E092AD018FEF809371
:102FF000B10189E18093B0018091AF01807E83604F
:103000008093AF0161E08BEA91E000DA0F900F90BE
:103010000F900F900F900F9066C039E1D31218C037
:103020008091F70183FF75C0877F8093F7018CEC57
:1030300091E0F7D88093F9011F928F938DE891E08A
:103040009F938F938CDA0F900F900F900F9061C029
:1030500031D181115EC08EE992E1892B09F459C00A
:103060008CEC91E00F900F90DF91CF911F910F9119
:10307000FF90EF90DF9062CA1F3F09F043C081E8E4
:1030800091E09F938F936BDA0F900F9083E0F8128B
:1030900034C08091F70182FF03C0E7E0DE16C9F17A
:1030A000F4E1DF1236C08091EE01081332C0D9D6A8
:1030B00073708827992704D76091EE018091ED0104
:1030C0008093AC01E092AD018FEF8093B10185E177
:1030D0008093B0018091AF01807E83608093AF01C7
:1030E0008BEA91E093D90F900F90DF91CF911F91D0
:1030F0000F91FF90EF90DF9014CE8091EE010813B6
:1031000008C0A9CF8BE591E09F938F9328DA0F90A9
:103110000F900F900F90DF91CF911F910F91FF9023
:10312000EF90DF900895CF93C6E08FEF0E943407B1
:1031300090E09595879587709927069724F4C1505C
:1031400011F026DEF2CFCF9108950E9423108091D6
:10315000F70184FDE8CF0895A895F7CF6F927F928D
:103160008F929F92AF92BF92CF92DF92EF92FF9297
:10317000CF93DF934B015C01C42F622E72D66B019B
:103180007C0181E0611080E08093D101712CD0E05E
:1031900068D66C197D098E099F09681579058A051D
:1031A0009B0588F471100FC0D7DF4091D0014770A4
:1031B00050E04C175D0761F78091D1018611E8CF8F
:1031C00077247394E5CF872DDF91CF91FF90EF9017
:1031D000DF90CF90BF90AF909F908F907F906F9037
:1031E00008951F93CF93DF93EC01162F8091ED018B
:1031F00089836A838FEF8E838FE08D838C81807EBD
:1032000083608C836DE571E0CE01CBD88B818770B4
:1032100080618B838C818F71806C8C8381E08F8344
:103220008887CE010FDB11110AC02FE043E060ED6B
:1032300077E080E090E0DF91CF911F918FCFDF9119
:10324000CF911F91089580E090E0892B21F08BE0D1
:1032500090E00E94000060E08BEA91E0C2DF20E095
:103260004DE551E061E18FEF14DB6091EE0180915B
:10327000ED018093AC011092AD018FEF8093B1010D
:1032800086E08093B0018091AF01807E836080935F
:10329000AF018BEA91E0BAD8E2DA26E043E060EDD4
:1032A00077E080E090E05ADF8DEB94E1892B09F024
:1032B00064CB0895CF93DF939091D1018091CD019C
:1032C0008111C7C09D30A1F480E090E0892B21F0EE
:1032D0008AE090E00E94000028E088E190E00FB6CC
:1032E000F894A895809360000FBE20936000FFCFF4
:1032F0009B31E1F48CEC91E00E9421118093AA01B2
:1033000080E090E0892B21F089E090E00E940000AD
:103310008091AA011F928F9388E690E09F938F93EC
:103320001ED90F900F900F900F9098C0963079F49F
:103330008091D30161E0882319F08D3409F060E0B9
:103340006093F00183E091E00E94152587C09331DE
:1033500011F479DF83C0923111F482DA7FC09130A9
:1033600061F480E090E0892B09F478C08CEC91E066
:103370000E9428110E94000071C09A3009F46EC0AA
:103380009C3109F069C08091D301823509F466C08F
:10339000863519F40E94290809C0863419F40E9460
:1033A000490804C08D34D1F40E948E082091ED01AB
:1033B0002093AC011092AD012FEF2093B1012CE1CD
:1033C0002093B0012091AF01207E23602093AF01B4
:1033D000BC018BEA91E035D842DA40C0853409F06F
:1033E0003DC08091ED018093AC011092AD018FEF53
:1033F0008093B1018CE18093B0018091AF01807E18
:1034000083608093AF0169E571E08BEA91E00E94EF
:10341000D11125DAC0E0D0E06FEFCE010E94152572
:103420002196CD3981E0D807B9F780E090E0892B6B
:1034300021F08AE090E00E94000028E088E190E01E
:103440000FB6F894A895809360000FBE209360009B
:10345000FFCF81E09A3119F080E001C081E0DF9177
:10346000CF9108956F927F928F929F92AF92BF9269
:10347000CF92DF92EF92FF92CF93DF934B015C01EB
:10348000C42F622EEED46B017C0181E0611080E0DC
:103490008093D101712CD0E0E4D46C197D098E09A0
:1034A0009F09681579058A059B05A8F4711013C05A
:1034B0008091F70184FD37DE4091D001477050E0E4
:1034C0004C175D0749F7772473948091D1018615D5
:1034D00019F3712CE1CF872DDF91CF91FF90EF9001
:1034E000DF90CF90BF90AF909F908F907F906F9024
:1034F000089589E394E09F938F9331D88091F701E9
:103500008D7F9091F8019F709093F80181608B7F7F
:103510008093F7018FEF8093EF018093EE010F907E
:103520000F9080E090E0892B21F084E090E00E94F1
:1035300000008091ED018093AC018FEF8093AD018D
:103540008093B10187E08093B0018091AF01807ECC
:1035500083608093AF016DE571E08BEA91E00E949A
:10356000D111DFCB84E194E09F938F930E94AF123F
:103570000F900F908091ED018F3F09F580E090E072
:10358000892B21F086E090E00E9400008091ED01FF
:103590008093AC011092AD018FEF8093B10183E075
:1035A0008093B0018091AF01807E83608093AF01F2
:1035B0006DE571E08BEA91E00E94D111B2CB0895E4
:1035C0001F93CF93DF938EE790E09F938F930E949A
:1035D000AF120F900F9080E090E0892B21F088E0EF
:1035E00090E00E94000081E08093AA01C4E0DFEF38
:1035F0001AE18091ED018093AC011092AD01D0935E
:10360000B1011093B0018091AF01807E83608093FF
:10361000AF0162E08BEA91E00E94061220D92BE113
:1036200043E060ED77E080E090E098DD811102C03A
:10363000C150F9F6DF91CF911F91089526E040E047
:1036400056E960E070E083ED93E00DD280E090E019
:10365000892B11F00E94000086ED90E09F938F93DC
:103660000E94AF120E94BB0E41E050E063E071E0A7
:1036700080EF91E00E94052560E081E090E00E94EB
:1036800015250E942E100F900F908091F70182FD5A
:1036900003C0A8955ADDF9CF8AE996E0892B11F08D
:1036A0000E949A06D0DD8CDF8091AA011F928F9331
:1036B0008091EF011F928F938091EE011F928F9363
:1036C0008091ED011F928F9387E990E09F938F93F4
:1036D0000E94AF128DB79EB70A960FB6F8949EBFA0
:1036E0000FBE8DBF08952CD4A9DFCBE9D6E000E84A
:1036F0001CE132DD209711F00E949B060115110597
:10370000C1F3FED0F6CF1F93CF93DF931F92CDB7B7
:10371000DEB79091F70193FD3EC02091ED01821735
:10372000E1F198609093F7011FEF1093F9011F9258
:103730008F9328EA32E03F932F9389830E94AF1240
:103740009091ED019093AC0189818093AD0110932C
:10375000B10188E18093B0018091AF01807E8360E8
:103760008093AF0161E08BEA91E00E940612D9DA02
:1037700029E143E060ED77E080E090E073DE809146
:10378000F701877F8093F7018091F9010F900F90E7
:103790000F900F9003C08FEF01C080E00F90DF917A
:1037A000CF911F9108950F931F93811112C059D388
:1037B0000091FA011091FB012091FC013091FD0173
:1037C000601B710B820B930B603177428105910571
:1037D000D8F180E098DF182F8F3F41F142D36093FA
:1037E000FA017093FB018093FC019093FD0121E6A7
:1037F00033E03F932F930E94AF128091EF010F901F
:103800000F90181749F11F921F931F928F9321E475
:1038100033E03F932F930E94AF121093EF010F906C
:103820000F900F900F900F900F9016C01F921F9344
:1038300086E293E09F938F930E94AF120F900F90B8
:103840000F900F9080E009C080E793E09F938F93E3
:103850000E94AF120F900F9081E01F910F91089579
:103860008CED93E09F938F930E94AF1281E09BDFDA
:103870000F900F90882359F080ED93E09F938F93E2
:103880000E94AF120F900F9084E191E00AC081EC8A
:1038900093E09F938F930E94AF120F900F9080E25E
:1038A00091E00C94D80FFC01818D228D90E0805C1A
:1038B0009F4F821B91098F7399270895FC01918D69
:1038C000828D981731F0828DE80FF11D858D90E083
:1038D00008958FEF9FEF0895FC01918D828D9817C9
:1038E00061F0828DDF01A80FB11D5D968C91928DE4
:1038F0009F5F9F73928F90E008958FEF9FEF0895E1
:1039000084EE9DE1892B41F080E090E0892B21F04D
:103910005BD181110C9400000895FC01848DDF01BE
:10392000A80FB11DA35ABF4F2C91848D90E0019632
:103930008F739927848FA689B7892C93A089B18921
:103940008C9180648C93938D848D981306C002882B
:10395000F389E02D80818F7D80830895CF93DF935D
:10396000EC01888D8823C1F0EA89FB89808185FD7F
:1039700005C0A889B9898C9186FD0EC00FB607FCD9
:10398000F5CF808185FFF2CFA889B9898C9185FF19
:10399000EDCFCE01C2DFE8CFDF91CF910895CF9276
:1039A000DF92FF920F931F93CF93DF931F92CDB7B8
:1039B000DEB76C0181E0D60158968C9358975B96E0
:1039C0009C915B975C968C915C97981307C050967E
:1039D000ED91FC915197808185FD2DC0F601038DFD
:1039E00010E00F5F1F4F0F731127F02EF601848D2B
:1039F000F81210C00FB607FCF9CFD6015096ED9122
:103A0000FC915197808185FFF1CFC601698385DFE5
:103A10006981ECCF838DE80FF11DE35AFF4F60837E
:103A2000D6015B960C935B975296ED91FC91539760
:103A3000808180620CC0D6015696ED91FC9157971B
:103A400060835096ED91FC915197808180648083D2
:103A500081E090E00F90DF91CF911F910F91FF9047
:103A6000DF90CF900895BF92CF92DF92EF92FF92B6
:103A7000CF93DF93EC016A017B01B22E60E874E81A
:103A80008EE190E0A701960120D42150310941092F
:103A900051095695479537952795E889F98982E028
:103AA0008083211580E1380790F0E889F989108238
:103AB00060E472E48FE090E0A701960106D4215003
:103AC0003109410951095695479537952795EC8558
:103AD000FD853083EE85FF852083188EEC89FD8976
:103AE000B082EA89FB89808180618083EA89FB89D1
:103AF000808188608083EA89FB89808180688083F7
:103B0000EA89FB8980818F7D8083DF91CF91FF904F
:103B1000EF90DF90CF90BF9008951F920F920FB655
:103B20000F9211242F938F939F93EF93FF93E09124
:103B3000E303F091E4038081E091E903F091EA036B
:103B400082FD12C090818091EC038F5F8F73209172
:103B5000ED03821751F0E091EC03F0E0ED52FC4FE1
:103B6000958F8093EC0301C08081FF91EF919F912D
:103B70008F912F910F900FBE0F901F9018951F924D
:103B80000F920FB60F9211242F933F934F935F9391
:103B90006F937F938F939F93AF93BF93EF93FF9315
:103BA00083ED93E0BADEFF91EF91BF91AF919F91CA
:103BB0008F917F916F915F914F913F912F910F90D6
:103BC0000FBE0F901F90189583ED93E06CDE21E0FF
:103BD000892B09F420E0822F08951092D6031092C9
:103BE000D50388EE93E0A0E0B0E08093D7039093F4
:103BF000D803A093D903B093DA0382E691E09093BF
:103C0000D4038093D30385EC90E09093E0038093FA
:103C1000DF0384EC90E09093E2038093E10380EC77
:103C200090E09093E4038093E30381EC90E0909321
:103C3000E6038093E50382EC90E09093E8038093A1
:103C4000E70386EC90E09093EA038093E9031092F7
:103C5000EC031092ED031092EE031092EF0308951F
:103C6000CF92DF92EF92FF920F931F93CF93DF9348
:103C70007C016A01EB0100E010E00C151D0571F0FC
:103C80006991D701ED91FC910190F081E02DC70180
:103C90000995892B19F00F5F1F4FEFCFC801DF91F6
:103CA000CF911F910F91FF90EF90DF90CF900895EB
:103CB0006115710581F0DB010D900020E9F7AD0180
:103CC00041505109461B570BDC01ED91FC910280DC
:103CD000F381E02D099480E090E00895E9CF089504
:103CE0001F920F920FB60F9211242F933F934F9371
:103CF0005F936F937F938F939F93AF93BF93EF9354
:103D0000FF93E0912801F09129010995FF91EF912E
:103D1000BF91AF919F918F917F916F915F914F91E3
:103D20003F912F910F900FBE0F901F9018951F92EB
:103D30000F920FB60F9211242F933F934F935F93DF
:103D40006F937F938F939F93AF93BF93EF93FF9363
:103D5000E0912A01F0912B010995FF91EF91BF911C
:103D6000AF919F918F917F916F915F914F913F9113
:103D70002F910F900FBE0F901F9018956115710530
:103D80008105910509F072C30895CF93DF9300D0A8
:103D900000D0CDB7DEB79B01AC016115710581057F
:103DA000910559F069833A834B835C835CD3298105
:103DB0003A814B815C81ABD203C060E070E0CB0103
:103DC0000F900F900F900F90DF91CF9108951F9259
:103DD0000F920FB60F9211242F933F938F939F93BF
:103DE000AF93BF938091710490917204A09173047A
:103DF000B09174043091700426E0230F2D3720F425
:103E00000296A11DB11D05C029E8230F0396A11D2F
:103E1000B11D209370048093710490937204A09359
:103E20007304B09374048091750490917604A0910A
:103E30007704B09178040196A11DB11D809375049B
:103E400090937604A0937704B0937804BF91AF91D8
:103E50009F918F913F912F910F900FBE0F901F90C8
:103E600018952FB7F8946091710470917204809145
:103E70007304909174042FBF08953FB7F894809114
:103E8000750490917604A0917704B091780426B5DA
:103E9000A89B05C02F3F19F00196A11DB11D3FBF82
:103EA0006627782F892F9A2F620F711D811D911D12
:103EB00043E0660F771F881F991F4A95D1F7089531
:103EC0008F929F92AF92BF92CF92DF92EF92FF922A
:103ED0006B017C01D2DF4B015C01C114D104E10410
:103EE000F104E1F01CD1C9DF681979098A099B093D
:103EF000683E73408105910580F321E0C21AD10824
:103F0000E108F10888EE880E83E0981EA11CB11C20
:103F1000C114D104E104F10431F7DFCFFF90EF9039
:103F2000DF90CF90BF90AF909F908F900895833097
:103F3000910528F0880F991F04970197F1F70895CC
:103F4000789484B5826084BD84B5816084BD85B574
:103F5000826085BD85B5816085BDEEE6F0E080813B
:103F600081608083E1E8F0E010828081826080835C
:103F7000808181608083E0E8F0E0808181608083DF
:103F8000E1EBF0E0808184608083E0EBF0E0808111
:103F900081608083EAE7F0E08081846080838081B3
:103FA0008260808380818E7F80838081806880832F
:103FB0001092C10008958E3008F08E5087702091C5
:103FC0002C0190E4299F90011124822B80937C0086
:103FD00080917A00806480937A0080917A0086FDD7
:103FE000FCCF809178002091790090E0922B089589
:103FF000833081F028F4813099F08230A1F0089567
:104000008730A9F08830B9F08430D1F480918000F5
:104010008F7D03C0809180008F778093800008950A
:1040200084B58F7702C084B58F7D84BD089580915B
:10403000B0008F7703C08091B0008F7D8093B00077
:104040000895CF93DF9390E0FC01EE59F44F249153
:10405000FC01EA58F44F8491882349F190E0880FDD
:10406000991FFC01EC56F44FA591B4918657944FDB
:10407000FC01C591D4919FB7611108C0F8948C914F
:10408000209582238C93888182230AC0623051F468
:10409000F8948C91322F309583238C938881822BD6
:1040A000888304C0F8948C91822B8C939FBFDF91FE
:1040B000CF9108950F931F93CF93DF931F92CDB7A6
:1040C000DEB7282F30E0F901E25BF44F8491F9016B
:1040D000EE59F44F1491F901EA58F44F049100237A
:1040E000C1F0882319F0698383DF6981E02FF0E054
:1040F000EE0FFF1FE657F44FA591B4919FB7F894C8
:104100008C91611103C01095812301C0812B8C9388
:104110009FBF0F90DF91CF911F910F910895089548
:10412000CF93CFB7F89480917C04811123C0E0E84D
:10413000FBE08491ECE6FBE09491E82FF0E0EE0FD9
:10414000FF1FEC56F44FA591B4918C91892319F47B
:1041500061E08AE0AFDF61E08AE073DF8CB5806107
:104160008CBD8CB580648CBD61E08DE06ADF61E060
:104170008BE067DF80917C048F5F80937C04CFBFEE
:10418000CF910895CF93DF93EB011092700061E01F
:1041900083E057DF60E083E08DDF9E01442737FD39
:1041A0004095542F60EA7FE080E090E0B0D081E05D
:1041B0008093B00089E08093B1002093B3008BEA34
:1041C000289F212D112426952093B400DF91CF91B3
:1041D00008958F929F92AF92BF92CF92DF92EF920B
:1041E000FF926A017B014530510561057105E8F0D8
:1041F00044DE4B015C0184E0C81AD108E108F108F3
:10420000C80CD91CEA1CFB1CC814D904EA04FB0422
:1042100030F433DE86169706A806B906D0F32DDEF5
:104220006C157D058E059F05D0F3FF90EF90DF9014
:10423000CF90BF90AF909F908F9008952091B00045
:1042400020622093B0006115710521F0AB0160E0A0
:1042500070E0BFCF08952091B0002F7D2093B00073
:104260006115710521F0AB0160E070E0B2CF0895F7
:10427000CF92DF92EF92FF920F931F93CF93DF9332
:104280007C018B016A01B9017DDFE80100E010E0EB
:104290000C151D0561F068817981C70100FF02C01E
:1042A000DADF01C0CBDF0F5F1F4F2296F1CF809185
:1042B000B0008F7D8093B000DF91CF911F910F915F
:1042C000FF90EF90DF90CF900895A1E21A2EAA1BE5
:1042D000BB1BFD010DC0AA1FBB1FEE1FFF1FA217B6
:1042E000B307E407F50720F0A21BB30BE40BF50BB3
:1042F000661F771F881F991F1A9469F7609570953C
:10430000809590959B01AC01BD01CF010895052ECC
:1043100097FB16F400940FD057FD05D0D6DF07FCAD
:1043200002D046F408C050954095309521953F4FF6
:104330004F4F5F4F089590958095709561957F4F91
:104340008F4F9F4F089569279627692778278727DA
:10435000782708950FD0A59F900DB49F900DA49F2E
:10436000800D911D11240895EE0FFF1F0590F4910B
:10437000E02D0994A29FB001B39FC001A39F700DCF
:10438000811D1124911DB29F700D811D1124911D5D
:104390000895EF920F931F93CF93DF93E80147FFA8
:1043A00002C034E101C034E0E42FFF27E7FDF095BF
:1043B000F7FF03C0F195E195F109E32E022F2E2FAF
:1043C000AE015CD3CE01DF91CF911F910F91EF90A1
:1043D00008958F929F92AF92BF92CF92DF92EF9209
:1043E000FF92CF93DF93EC01688179818A819B8171
:1043F000611571058105910521F464E279ED8BE584
:1044000097E02DE133EF41E050E081DF49015A01AF
:104410009B01AC01A7EAB1E49DDF6B017C01ACEE2E
:10442000B4EFA501940137D6C60ED71EE81EF91EBB
:10443000F7FE06C081E0C81AD108E10880E8F80A52
:10444000C882D982EA82FB82C701B6019F77DF91D9
:10445000CF91FF90EF90DF90CF90BF90AF909F9063
:104460008F900895B6CF86E091E0B3CF60930601B8
:104470007093070180930801909309010895FC014E
:1044800088279927E89421912032E9F3293010F008
:104490002E30C8F32B3239F02D3231F4689403C03A
:1044A00086D0820F911D219120532A30C8F31EF42B
:1044B000909581959F4F08951F93FC019927882718
:1044C000BC01E89411911032E9F3193010F01E305C
:1044D000C8F31B3249F01D3241F4689405C052D034
:1044E000610F711D811D911D119110531A30B8F388
:1044F0003EF490958095709561957F4F8F4F9F4FBB
:104500001F910895FB01DC0102C005900D924150FE
:104510005040D8F70895FB01DC0102C001900D92D4
:1045200041505040D8F70895DC0101C06D934150CF
:104530005040E0F70895FB01DC014150504048F045
:1045400001900D920020C9F701C01D9241505040CA
:10455000E0F70895BB274A3031F4992322F4BDE2F5
:10456000909581959F4F4DC0BB272A3051F49923D8
:1045700042F4BDE290958095709561957F4F8F4F85
:104580009F4F1EC0592F482F372F262F660F771F9A
:10459000881F991F660F771F881F991F620F731F4F
:1045A000841F951F660F771F881F991F08957AE053
:1045B000979F902D879F802D910D11240895BB27E3
:1045C000FA01A62F6217710581059105330B30FBA7
:1045D00066F0AA27660F771F881F991FAA1FA217C8
:1045E00010F0A21B63953850A9F7A05DAA3308F01C
:1045F000A95DA19336F7B111B1931082CA01A9C484
:10460000BB27FB015527AA27880F991FAA1FA417AC
:1046100010F0A41B83955051B9F7A05DAA3308F0A0
:10462000A95DA193009779F7B111B1931192CB01D4
:1046300090C4AEE0B0E0EEE1F3E23FC58C01CA0108
:104640004EE04C831A83098377FF02C060E070E874
:10465000615071097E836D83A901BC01CE01019671
:1046600011D04D815E8157FD0AC02F8138854217D8
:1046700053070CF49A01F801E20FF31F10822E96F3
:10468000E4E037C5ACE0B0E0E7E4F3E208C57C0164
:104690006B018A01FC0117821682838181FFB0C100
:1046A000CE0101964C01F7019381F60193FD8591AE
:1046B00093FF81916F01882309F49EC1853239F4FB
:1046C00093FD859193FF81916F01853221F4B701AC
:1046D00090E04FD4E8CF512C312C20E02032A0F4D0
:1046E0008B3269F030F4803259F0833269F4206102
:1046F0002CC08D3239F0803339F4216026C022601D
:10470000246023C0286021C027FD27C030ED380F6A
:104710003A3078F426FF06C0FAE05F9E300D11248F
:10472000532E13C08AE0389E300D1124332E2062A0
:104730000CC08E3221F426FD5FC1206406C08C3689
:1047400011F4206802C0883641F4F60193FD85918A
:1047500093FF81916F018111C1CF982F9F7D955457
:10476000933028F40C5F1F4FFFE3F9830DC08336AD
:1047700031F0833771F0833509F057C021C0F8015B
:10478000808189830E5F1F4F44244394512C540130
:1047900014C03801F2E06F0E711CF801A080B180E6
:1047A00026FF03C0652D70E002C06FEF7FEFC501EB
:1047B0002C87C4D32C0183012C852F77222E16C081
:1047C0003801F2E06F0E711CF801A080B18026FF65
:1047D00003C0652D70E002C06FEF7FEFC5012C872D
:1047E000A2D32C012C852068222E830123FC19C022
:1047F000832D90E048165906A0F4B70180E290E0BE
:10480000B8D33A94F5CFF50127FC859127FE819125
:104810005F01B70190E0ADD331103A94F1E04F1A47
:1048200051084114510479F7DEC0843611F08936FD
:1048300031F5F80127FF07C0608171818281938182
:104840000C5F1F4F08C060817181882777FD8095BC
:10485000982F0E5F1F4F2F76B22E97FF09C09095AD
:104860008095709561957F4F8F4F9F4F2068B22E36
:104870002AE030E0A401AFD3A82EA81843C08537A2
:1048800029F42F7EB22E2AE030E025C0F22FF97FE6
:10489000BF2E8F36C1F018F4883579F0ADC080375F
:1048A00019F0883721F0A8C02F2F2061B22EB4FE56
:1048B0000DC08B2D8460B82E09C024FF0AC09F2F25
:1048C0009660B92E06C028E030E005C020E130E057
:1048D00002C020E132E0F801B7FE07C060817181BB
:1048E000828193810C5F1F4F06C06081718180E0DF
:1048F00090E00E5F1F4FA4016ED3A82EA818FB2DC9
:10490000FF77BF2EB6FE0BC02B2D2E7FA51450F4C3
:10491000B4FE0AC0B2FC08C02B2D2E7E05C07A2C36
:104920002B2D03C07A2C01C0752C24FF0DC0FE0175
:10493000EA0DF11D8081803311F4297E09C022FF28
:1049400006C07394739404C0822F867809F0739420
:1049500023FD12C020FF06C05A2C731418F4530C08
:104960005718732C731460F4B70180E290E02C8721
:1049700000D373942C85F6CF731410F4371801C04C
:10498000312C24FF11C0B70180E390E02C87F1D2D5
:104990002C8522FF16C021FF03C088E590E002C0ED
:1049A00088E790E0B7010CC0822F867851F021FD96
:1049B00002C080E201C08BE227FD8DE2B70190E0EA
:1049C000D8D2A51430F4B70180E390E0D2D25A9443
:1049D000F8CFAA94F401EA0DF11D8081B70190E0AF
:1049E000C8D2A110F6CF332009F45DCEB70180E222
:1049F00090E0BFD23A94F7CFF7018681978102C049
:104A00008FEF9FEF2C96E2E166C3DC01CB01FC0146
:104A1000F999FECF06C0F2BDE1BDF89A319600B417
:104A20000D9241505040B8F70895262FF999FECFC6
:104A300092BD81BDF89A019700B4021639F01FBAF1
:104A400020BD0FB6F894FA9AF99A0FBE0895DC01CA
:104A5000CB0102C02D9105D041505040D8F70895A8
:104A6000262FF999FECF1FBA92BD81BD20BD0FB68A
:104A7000F894FA9AF99A0FBE019608956F927F9270
:104A80009F92AF92BF92CF92DF92EF92FF920F93DD
:104A90001F93CF93DF93CDB7DEB729970FB6F89466
:104AA000DEBF0FBECDBF6A01B22E102F0C3320F433
:104AB000FF24F394F00E02C04CE3F42E0F2D27E0F8
:104AC000AE014F5F5F4F57D17981272F2970213079
:104AD00031F0E1FC06C0E0FC06C060E005C06DE21C
:104AE00003C06BE201C060E2AE2DA07173FF36C05F
:104AF000662311F084E001C083E08B1510F4B81A2E
:104B000001C0B12CA1110BC0F6018B2D90E28823BE
:104B100019F091938150FBCFCB0CD11CB12C6623A3
:104B200031F0F601608396012F5F3F4F6901C601A6
:104B30000396E2FE05C02EE4F601208331E404C0B2
:104B40002EE6F601208331E631832283FC012B2DF2
:104B500030E22223F1F131932150FBCF72FF40C0AC
:104B6000662311F084E001C083E08B1510F4B81ABD
:104B700001C0B12CA1110BC0F6018B2D90E288234E
:104B800019F091938150FBCFCB0CD11CB12C662333
:104B900031F0F601608396012F5F3F4F6901C60136
:104BA0000396E2FE07C029E4F60120832EE4218368
:104BB00026E406C029E6F60120832EE6218326E6B8
:104BC0002283FC012B2D30E2222319F03193215056
:104BD000FBCFFC01EB0DF11D10828EEF9FEFB7C0F4
:104BE000B1E0611101C0B0E04B2F50E0181619067A
:104BF00024F49C012F5F3F4F02C021E030E0240FDE
:104C0000351F112329F0412F50E04F5F5F4F02C045
:104C100040E050E0420F531F2B2D30E04217530766
:104C200014F4B41A01C0B12C2E2D287159F4F601D8
:104C30002B2D30E2222319F031932150FBCFCB0CE6
:104C4000D11CB12CBB2331F0F601608396012F5F9C
:104C50003F4F6901A1110BC0F6012B2D30E3222338
:104C600019F031932150FBCFCB0CD11CB12CF80E95
:104C70000A81372F3071A32E74FF03C0013309F46A
:104C8000FA941F142CF42F2D293018F028E001C0BD
:104C900021E0682F392F97FF02C060E030E0462FF7
:104CA000532F612C712C3EE2932EBC01621B7109C3
:104CB0009B01DC01A41BB50BE1E0F0E0EC0FFD1F54
:104CC000AE0FBF1FE12EF12CF194E194F1084F3F9C
:104CD000FFEF5F0731F4F6019082B6016F5F7F4FFF
:104CE0006B01841795074CF02417350734F4BD0188
:104CF000660D771DFB01118101C010E34150510980
:104D0000FFEF6F1A7F0AB6016F5F7F4F4E155F0589
:104D100024F0F60110836B01DACF4817590739F4F4
:104D2000063320F4053319F4A11001C011E3F60194
:104D30001083FB018B2D90E2882319F09193815011
:104D4000FBCFFB01EB0DF11D108280E090E0299676
:104D50000FB6F894DEBF0FBECDBFDF91CF911F918C
:104D60000F91FF90EF90DF90CF90BF90AF909F900A
:104D70007F906F900895283008F027E03327DA01FC
:104D8000990F311D87FD916000966105710539F419
:104D900032602E5F3D9330E32A95E1F708959F3FFF
:104DA00030F080387105610509F03C5F3C5F3D9350
:104DB000913008F08068911DDF93CF931F930F937C
:104DC000FF92EF92192F987F9695E92F96959695D9
:104DD000E90FFF27E850F44F99273327EE24FF24EB
:104DE000A701E70105900894079428F4360FE71E01
:104DF000F81E491F511D660F771F881F991F0694C3
:104E0000A1F70590079428F4E70EF81E491F561FD6
:104E1000C11D770F881F991F661F0694A1F7059083
:104E2000079428F4F80E491F561FC71FD11D880F7D
:104E3000991F661F771F0694A1F70590079420F429
:104E4000490F561FC71FD81F990F661F771F881F4E
:104E50000694A9F784911095177041F0D695C795DF
:104E600057954795F794E7941A95C1F7EEE9FBE05B
:104E700068941590159135916591959105907FE213
:104E80007395E118F10A430B560BC90BD009C0F713
:104E9000E10CF11E431F561FC91FD01D7EF4703355
:104EA00011F48A95E6CFE894015030F0080F0AF427
:104EB0000027021708F4202F2395022F7A3328F0B9
:104EC00079E37D932A95E9F710C07D932A9589F6B9
:104ED000069497956795379517951794E118F10AF9
:104EE000430B560BC90BD00998F023957E9173950F
:104EF0007A3308F070E37C932013B8F77E917061E9
:104F00007D9330F0839571E37D9370E32A95E1F70B
:104F10001124EF90FF900F911F91CF91DF9199276E
:104F200087FD90950895FC01059061507040011037
:104F3000D8F7809590958E0F9F1F0895FC016150C2
:104F4000704001900110D8F7809590958E0F9F1FAB
:104F50000895DC01FC01672F71917723E1F7329707
:104F600004C07C916D9370836291AE17BF07C8F344
:104F700008950F931F93CF93DF93182F092FEB0101
:104F80008B8181FD03C08FEF9FEF20C082FF10C097
:104F90004E815F812C813D81421753077CF4E8816B
:104FA000F9819F012F5F3F4F39832883108306C00B
:104FB000E885F985812F0995892B29F72E813F8175
:104FC0002F5F3F4F3F832E83812F902FDF91CF9113
:104FD0001F910F910895FA01AA27283051F120312D
:104FE00081F1E8946F936E7F6E5F7F4F8F4F9F4F7D
:104FF000AF4FB1E03ED0B4E03CD0670F781F891FBF
:105000009A1FA11D680F791F8A1F911DA11D6A0F8C
:10501000711D811D911DA11D20D009F468943F913F
:105020002AE0269F11243019305D3193DEF6CF013E
:105030000895462F4770405D4193B3E00FD0C9F704
:10504000F6CF462F4F70405D4A3318F0495D31FD71
:105050004052419302D0A9F7EACFB4E0A6959795C4
:10506000879577956795BA95C9F70097610571059A
:1050700008959B01AC010A2E0694579547953795E4
:105080002795BA95C9F7620F731F841F951FA01D3E
:105090000895B7FF5FC95ED9821B930B08952F92C5
:1050A0003F924F925F926F927F928F929F92AF92B8
:1050B000BF92CF92DF92EF92FF920F931F93CF9305
:1050C000DF93CDB7DEB7CA1BDB0B0FB6F894DEBF9C
:1050D0000FBECDBF09942A88398848885F846E84C2
:1050E0007D848C849B84AA84B984C884DF80EE800C
:1050F000FD800C811B81AA81B981CE0FD11D0FB615
:10510000F894DEBF0FBECDBFED010895F894FFCF38
:1051100000008104200001000000FF00FCE1A8A8BD
:105120008513191064137113301C0000B21A221376
:10513000791ADB12D61300006F1E6F1E01322E305B
:105140002E302D6265746100322E302E302E432DAC
:1051500062657461004143204163747561746F72CC
:10516000006661696C006263006F6B0021000000E3
:0E5170000000CF1C301E531C6C1C5E1CAE1CBD
:00000001FF
