:1000000032C100000C9417150C943E1554C1000029
:1000100052C1000050C10000EEC200004CC10000FF
:100020004AC1000048C1000046C1000044C10000B0
:1000300042C1000040C100003EC100003CC10000C0
:100040000C94911538C100000C944B140C947D1441
:1000500032C1000030C100002EC100002CC10000E0
:100060002AC1000028C1000067E6096A85AE67BBA7
:1000700072F36E3C3AF54FA57F520E518C68059B8A
:10008000ABD9831F19CDE05B982F8A429144377119
:10009000CFFBC0B5A5DBB5E95BC25639F111F1590B
:1000A000A4823F92D55E1CAB98AA07D8015B83124D
:1000B000BE853124C37D0C55745DBE72FEB1DE80F9
:1000C000A706DC9B74F19BC1C1699BE48647BEEF28
:1000D000C69DC10FCCA10C246F2CE92DAA84744AB3
:1000E000DCA9B05CDA88F97652513E986DC631A829
:1000F000C82703B0C77F59BFF30BE0C64791A7D508
:100100005163CA0667292914850AB72738211B2E8F
:10011000FC6D2C4D130D385354730A65BB0A6A7677
:100120002EC9C281852C7292A1E8BFA24B661AA883
:10013000708B4BC2A3516CC719E892D1240699D693
:1001400085350EF470A06A1016C1A419086C371E0C
:100150004C774827B5BCB034B30C1C394AAAD84EEA
:100160004FCA9C5BF36F2E68EE828F746F63A57825
:100170001478C8840802C78CFAFFBE90EB6C50A4B8
:10018000F7A3F9BEF27871C6000000080002010072
:100190000003040700000000000000000102040842
:1001A00010204080010204081020010204081020E1
:1001B000040404040404040402020202020203030D
:1001C0000303030300000000250028002B000000AB
:1001D0000000240027002A0000FEFFFFFFFF01FFB0
:1001E000020102FF01FEFFFFFFFFFF05020505FF01
:1001F00001FFFF03FF040105020505FF02FFFFFFEA
:1002000002040105020505FFFFFF03FF05FF0105CD
:10021000020505FF02FFFFFFFFFF010502FFFF00D0
:10022000FFFEFFFFFFFFFFFF0101FF00FFFFFFFFDA
:10023000FFFFFF02FF02FFFF020302FFFF000100BA
:10024000FFFFFFFFFFFF04FF000100FF01FFFFFFB3
:10025000FFFF050001000103FFFFFFFFFFFFFFFF9E
:10026000FF00EA12AB1411241FBECFEFD8E0DEBFAF
:10027000CDBF11E0A0E0B1E0E0E0F2E402C0059003
:100280000D92A039B107D9F725E0A0E9B1E001C08E
:100290001D92A23BB207E1F712E0C6E6D2E004C02D
:1002A0002297FE010E94B91DC236D107C9F70E94EC
:1002B000DA120C94FE20A4CEEAE2F3E0808184609E
:1002C0008083089540E050E0BA018BED92E00C94F9
:1002D0006B198EBD00000DB407FEFDCF8EB50895DD
:1002E000BF92CF92DF92EF92FF920F931F93CF9323
:1002F000DF93C82F8B01C42EB22E8091AE058823C8
:1003000099F03FB7F8948091AE05813059F48DB3E0
:100310008093AC058DB39091AD05909598239DBBCE
:100320003FBF02C03093AC0580E58CBD1DBC60E0D2
:100330008AE00E9461178AE090E00E9441168C2FAB
:10034000C8DFD82EE801CC20A9F0BB2049F08FEF00
:10035000C0DFD82E0115110559F08883219608C0F9
:100360007E018FEFE81AF80A8881B3DFD82EE70103
:10037000CA94E9CF61E08AE00E9461178091AE05DE
:10038000882361F09FB7F8942091AE058091AC0569
:10039000213019F48DBB9FBF01C08FBF8AE090E070
:1003A0000E9441168D2DDF91CF911F910F91FF90EB
:1003B000EF90DF90CF90BF900895CF93DF931F927F
:1003C000CDB7DEB7698320E041E0BE016F5F7F4FAC
:1003D00087DF0F90DF91CF91089560E089E00E9460
:1003E00061176CE080E2E9CF80912A038B7F8F7EDA
:1003F00080932A0380E090E0892B21F087E690E04B
:100400000E940000EACF6FE080E2D7DF60910A012E
:100410006F3F11F08AE2D1DF61E089E00C9461174F
:1004200020E040E060E070E05BCFEF92FF921F932E
:10043000CF93DF931F92CDB7DEB7182F7B0160E01B
:1004400089E049830E94611782E890E00E9441168A
:100450006EE080E2B2DF84E690E00E944116612FF8
:100460008AE2ABDF612F80E3A8DF81EED9DF20E0F5
:100470004981B70180EA34DF61E089E00E946117B9
:10048000EE24EA94FE2C8FEFCBDF182F807351F40B
:10049000970121503109EF2811F07901F4CFEE24B2
:1004A000EA94FE2C60E089E00E94611760E387E235
:1004B00084DF14FF02C081EEB3DFA5DF15FF03C0A8
:1004C00081E0EF2809F480E00F90DF91CF911F9138
:1004D000FF90EF9008951F93CF93DF93EC0121E0FD
:1004E00041E060E070E080E6FBDE182F813218F01A
:1004F00082EE96DF10E021E0412FBE0181E6F0DEC2
:1005000060E487E25ADF812FDF91CF911F91089538
:10051000CF9321E041E060E070E086E0E1DEC82FAB
:1005200021E041E060E070E085E0DADE91E08C34CB
:1005300009F090E081E0C73209F080E08923CF9193
:100540000895CF9361E089E00E94281761E08AE076
:100550000E9428170E94971760E089E00E946117A7
:1005600061E08AE00E9461176EE080E226DF65E0CC
:1005700070E080E090E00E940A1663E083E21DDFF5
:100580006FE584E21ADF6CE485E217DF67E286E25A
:1005900014DFBEDFC82F882359F163E780E30DDF46
:1005A00066E08DE30ADF62E082E207DF60E081E27D
:1005B00004DF63E08CE301DF8FEF80930B0120E029
:1005C00045E06BE071E08BE28BDE20E045E06BE024
:1005D00071E08AE285DE20E045E06BE071E080E3D7
:1005E0007FDE82EE1DDF81EE1BDF60E787E2E5DE66
:1005F0008C2FCF9108951F920F920FB60F92112456
:100600000F900FBE0F901F901895CF93DF93EC01C2
:1006100040E250E068E670E08F5B9F4F0E947A20D6
:10062000FE01EF59FF4F1082118212821382C05CCB
:10063000DF4F1882DF91CF9108952F923F924F9212
:100640005F926F927F928F929F92AF92BF92CF9262
:10065000DF92EF92FF920F931F93CF93DF93CDB76B
:10066000DEB7EF970FB6F894DEBF0FBECDBF9FAFDA
:100670008EAF9C012F5B3F4FD9018D919D910D90C5
:10068000BC91A02D8C8F9D8FAE8FBF8F2EAD3FADB7
:100690002B5B3F4FD9018D919D910D90BC91A02D69
:1006A00088A399A3AAA3BBA32EAD3FAD275B3F4F61
:1006B000D9018D919D910D90BC91A02D8CA39DA3EE
:1006C000AEA3BFA32EAD3FAD235B3F4FD9018D91AC
:1006D0009D910D90BC91A02D88A799A7AAA7BBA713
:1006E0002EAD3FAD2F5A3F4FD9018D919D910D9069
:1006F000BC91A02D8CA79DA7AEA7BFA72EAD3FADE7
:100700002B5A3F4FD9018D919D910D90BC91A02DF9
:1007100088AB99ABAAABBBAB2EAD3FAD275A3F4FD1
:10072000D9018D919D910D90BC91A02D8CAB9DAB6D
:10073000AEABBFAB2EAD3FAD235A3F4FD9018D912C
:100740009D910D90BC91A02D88AF99AFAAAFBBAF82
:1007500028E830E03B8F2A8F4C015D018CA99DA9D0
:10076000AEA9BFA98A8B9B8BAC8BBD8B28A939A95D
:100770004AA95BA92E8B3F8B488F598F8CA59DA5CD
:10078000AEA5BFA589839A83AB83BC8328A539A571
:100790004AA55BA52E873F87488B598B8CA19DA1CD
:1007A000AEA1BFA18A879B87AC87BD8728A139A14D
:1007B0004AA15BA12E833F83488759874C8D5D8D6D
:1007C0006E8D7F8DAAEF2A2E33243A941D82C98024
:1007D000DA80EB80FC803BE0F694E794D794C794F2
:1007E0003A95D1F789819A81AB81BC81E5E1880F87
:1007F000991FAA1FBB1FEA95D1F7C82AD92AEA2A4E
:10080000FB2A09811A812B813C81F6E036952795D8
:1008100017950795FA95D1F749805A806B807C80AF
:10082000AAE1440C551C661C771CAA95D1F7042933
:10083000152926293729C026D126E226F326098143
:100840001A812B813C81B9E136952795179507953B
:10085000BA95D1F749805A806B807C8087E0440C40
:10086000551C661C771C8A95D1F704291529262961
:100870003729C026D126E226F3260A891B892C892E
:100880003D898E899F89A88DB98D082719272A2728
:100890003B2789819A81AB81BC81082319232A23B4
:1008A0003B238A899B89AC89BD89082719272A2778
:1008B0003B27EA8DFB8D4590559065907490C00E56
:1008C000D11EE21EF31EC40CD51CE61CF71C8D8144
:1008D0008F70EEADFFAD94E0899FE00DF11D112406
:1008E00080819181A281B381C80ED91EEA1EFB1EB0
:1008F000C80CD91CEA1CFB1C4A015B019DE0B694A4
:10090000A794979487949A95D1F7DB01CA0123E1C4
:10091000880F991FAA1FBB1F2A95D1F7882A992AE9
:10092000AA2ABB2A8A019B01E2E0369527951795F2
:100930000795EA95D1F72A013B01FEE1440C551CCD
:10094000661C771CFA95D1F7042915292629372921
:1009500080269126A226B3268A019B01A6E1369520
:10096000279517950795AA95D1F72A013B01BAE07B
:10097000440C551C661C771CBA95D1F7042915291F
:100980002629372980269126A226B3260E811F818B
:10099000288539858A859B85AC85BD85082B192BD3
:1009A0002A2B3B2B04231523262337234E805F80DD
:1009B00068847984482259226A227B2204291529D5
:1009C00026293729080D191D2A1D3B1D8E859F8557
:1009D000A889B9898C0D9D1DAE1DBF1D8E879F876F
:1009E000A88BB98B0C0D1D1D2E1D3F1D9D819F5F7A
:1009F0009D83903409F405C18D81803108F4C6C00F
:100A00008F70AEADBFADE4E08E9FA00DB11D11247F
:100A1000BDAFACAFF101EF70FF27EE0FFF1FEE0F80
:100A2000FF1F8EAD9FADE80FF91FCD90DD90ED90CB
:100A3000FC9080819181A281B381C80ED91EEA1EEB
:100A4000FB1EF1013596EF70FF27EE0FFF1FEE0F33
:100A5000FF1FAEADBFADEA0FFB1F4080518062802B
:100A6000738053014201E1E1B694A794979487946F
:100A7000EA95D1F7D301C201FFE0880F991FAA1FA1
:100A8000BB1FFA95D1F7882A992AAA2ABB2AD30133
:100A9000C201EAE0B695A79597958795EA95D1F7B3
:100AA00088269926AA26BB26D301C201F3E1B69572
:100AB000A79597958795FA95D1F7EDE0440C551CCD
:100AC000661C771CEA95D1F784299529A629B729B0
:100AD00088269926AA26BB26C80CD91CEA1CFB1C12
:100AE000F1013897EF70FF27EE0FFF1FEE0FFF1F8A
:100AF0008EAD9FADE80FF91F4080518062807380FA
:100B000053014201B7E0B694A79497948794BA959D
:100B1000D1F7D301C201E9E1880F991FAA1FBB1FBA
:100B2000EA95D1F7882A992AAA2ABB2AD301C201B9
:100B3000F3E0B695A79597958795FA95D1F788260E
:100B40009926AA26BB26D301C201E2E1B695A79554
:100B500097958795EA95D1F7FEE0440C551C661CE5
:100B6000771CFA95D1F784299529A629B7298826D3
:100B70009926AA26BB26C80CD91CEA1CFB1CACADC6
:100B8000BDADCD92DD92ED92FC9213978A8D9B8D37
:100B900004969B8F8A8F9FEF291A390A8A889B882F
:100BA000AC88BD888E899F89A88DB98D8A8B9B8BD7
:100BB000AC8BBD8B89819A81AB81BC818E8B9F8BE5
:100BC000A88FB98F8E859F85A889B98989839A83D3
:100BD000AB83BC838A859B85AC85BD858E879F87CB
:100BE000A88BB98B8E819F81A885B9858A879B87C1
:100BF000AC87BD874E835F8368877987B901A80179
:100C0000E6CDEEADFFADEF5BFF4F8C8D9D8DAE8DD4
:100C1000BF8D080F191F2A1F3B1F008311832283DA
:100C20003383EEADFFADEB5BFF4F88A199A1AAA185
:100C3000BBA1480F591F6A1F7B1F408351836283EA
:100C400073836EAD7FAD675B7F4F8E819F81A8857B
:100C5000B9852CA13DA14EA15FA1820F931FA41FB6
:100C6000B51FFB0180839183A283B3836EAD7FADFB
:100C7000635B7F4F8A859B85AC85BD8528A539A59B
:100C80004AA55BA5820F931FA41FB51FFB0180839C
:100C90009183A283B3836EAD7FAD6F5A7F4F8E85F4
:100CA0009F85A889B9892CA53DA54EA55FA5820F72
:100CB000931FA41FB51FFB0180839183A283B3837D
:100CC0006EAD7FAD6B5A7F4F89819A81AB81BC81BC
:100CD00028A939A94AA95BA9820F931FA41FB51F90
:100CE000FB0180839183A283B3836EAD7FAD675A8E
:100CF0007F4F8E899F89A88DB98D2CA93DA94EA9BA
:100D00005FA9820F931FA41FB51FFB0180839183EE
:100D1000A283B3836EAD7FAD635A7F4F8A899B896F
:100D2000AC89BD8928AD39AD4AAD5BAD820F931F4B
:100D3000A41FB51FFB0180839183A283B383EF9629
:100D40000FB6F894DEBF0FBECDBFDF91CF911F91DC
:100D50000F91FF90EF90DF90CF90BF90AF909F905A
:100D60008F907F906F905F904F903F902F9008955D
:100D7000CF93DF93EC01C05CDF4F388123E0232762
:100D8000FC01E20FF11D608321E0230F2883203452
:100D900011F453DC1882DF91CF910895262FFC01C6
:100DA000EF59FF4F40815181628173814F5F5F4FE7
:100DB0006F4F7F4F4083518362837383622FD8CFFD
:100DC0000F931F93CF93DF93EC0160E8D1DF8E0187
:100DD000005C1F4FF801808160E0883319F0CE017C
:100DE000C7DFF8CFCE01C4DF60E0CE01C1DF60E035
:100DF000CE01BEDF8E010F591F4FF8016081718156
:100E000082819381BDE19695879577956795BA958F
:100E1000D1F7CE01ADDFF8016081718182819381CC
:100E200025E196958795779567952A95D1F7CE0117
:100E30009FDFF80160817181828193813DE0969509
:100E40008795779567953A95D1F7CE0191DFF801AF
:100E5000608171818281938145E096958795779530
:100E600067954A95D1F7CE0183DFF8016081660F5F
:100E7000660F660FCE01DF91CF911F910F9178CF52
:100E8000CF93DF93EC019CDFAE0128E030E0FA0164
:100E9000EF5BFF4F60817181828193810E94A61D6B
:100EA0006083718382839383215031094C5F5F4F4C
:100EB0002115310561F7CE018F5B9F4FDF91CF91F7
:100EC0000895AF92BF92CF92DF92EF92FF920F936D
:100ED0001F93CF93DF9300D000D0CDB7DEB75C0176
:100EE0007C0185E6E80EF11C80E4F70111928A95F9
:100EF000E9F74134510514F1C50149835A836B83E5
:100F00007C8383DB6B81062F7C81172F49815A817B
:100F10006801C40ED51E0C151D0531F0F801619154
:100F20008F01C5013BDFF7CFC501AADF20E2FC013D
:100F3000D70101900D922A95E1F703C0C7010E94E5
:100F40008320C50162DB85017501F0E4EF0EF11C21
:100F500056E3D52EF801EB59FF4F60816D25C50191
:100F60001DDF0F5F1F4F0E151F05A1F70F900F908C
:100F70000F900F90DF91CF911F910F91FF90EF9005
:100F8000DF90CF90BF90AF900895DF92EF92FF92E5
:100F90000F931F93CF93DF93EC0172DFDE01AB550C
:100FA000BF4F20E2FC0101900D922A95E1F7CE019E
:100FB0002CDB7E0180E4E80EF11C8E016CE5D62E60
:100FC000F801EB59FF4F60816D25CE01E7DE0F5F21
:100FD0001F4F0E151F05A1F77E0180E2E80EF11CE0
:100FE0008E01F801EB55FF4F6081CE01D7DE0F5F18
:100FF0001F4F0E151F05A9F7CE01DF91CF911F914D
:101000000F91FF90EF90DF903BCF1F93CF93DF9333
:10101000162F20E2EAE7F3E0DF011D922A95E9F7B7
:10102000FC01438146954695469550E04A5F5F4FE7
:10103000BC016F5F7F4F8AE793E00E9483208FEDB2
:1010400093E0E3DACAE7D3E069918FED93E0A6DE9F
:10105000F3E0CA39DF07C1F765E18FED93E09EDE6B
:1010600062E08FED93E09ADE68E08FED93E096DE2C
:1010700060E08FED93E092DE6EEE8FED93E08EDE1A
:1010800061E08FED93E08ADE63E28FED93E086DE30
:10109000C9E1D0E060E08FED93E080DE21972097FA
:1010A000C9F7C0E0D0E0FE01112319F0E656FC4F6D
:1010B00002C0E654FC4F60818FED93E06FDE219615
:1010C000C032D10581F7112319F08AE993E002C0FB
:1010D0008AEB93E040E250E06AEA70E00E948C20E4
:1010E0008FED93E0CDDE20E2FC01AAE7B3E00190B2
:1010F0000D922A95E1F740E250E06AE573E08FED4A
:1011000093E0DFDEC0E2D0E060E08FED93E046DE0A
:1011100021972097C9F7CAE7D3E069918FED93E053
:101120003DDE83E0CA39D807C1F761E18FED93E076
:1011300035DE64E08FED93E031DE60E08FED93E02B
:101140002DDE60E08FED93E029DECBE0D0E060E0C3
:101150008FED93E023DE21972097C9F76EEE8FED98
:1011600093E01CDEC4E0D0E060E08FED93E016DE9B
:1011700021972097C9F761E08FED93E00FDE63E2DE
:101180008FED93E00BDE60E08FED93E007DE60E033
:101190008FED93E003DE8FED93E0F7DE20E2FC01BC
:1011A000AAE3B3E001900D922A95E1F7DF91CF9188
:1011B0001F91089587E00E948516BC01882777FD5E
:1011C0008095982F0E94651540E250E063E671E03B
:1011D0008AE593E00E94BF2049E050E063E871E0B7
:1011E00081E393E00C94BF2040E250E063E271E0C1
:1011F00086EE94E00E94BF2040E250E063E471E09C
:1012000086EC94E00E94BF20D5CF0F931F9380916E
:10121000DA03811102C081E035C00E94DB15009124
:10122000DB031091DC032091DD033091DE036017B6
:1012300071078207930798F00E94DB150091DB038A
:101240001091DC032091DD033091DE0308571C4E22
:101250002F4F3F4F0617170728073907E0F640E2E0
:1012600050E06AEA70E08AE993E00E948C2040E254
:1012700050E06AEA70E08AEB93E00E948C201092C2
:10128000DA0380E01F910F910895BFCFFC013796DC
:1012900089E1AAE9B3E001900D928A95E1F747E070
:1012A00050E06AEA70E083EB93E00C948C200F939B
:1012B0001F93CF93DF93EC018B81803C08F05BC0E0
:1012C00084608B8361E0CE01A0DE2A81E22FF0E012
:1012D00073E0F595E7957A95E1F7EA53FB4F808146
:1012E00090E080959095277002C0959587952A95F6
:1012F000E2F780FF2AC08FED93E087D90AE313E07D
:10130000F80161918F018FED93E048DDF3E00A353C
:101310001F07B1F769818FED93E040DD01E313E032
:10132000F80161918F018FED93E038DDF3E00A332E
:101330001F07B1F78FED93E0A3DD20E2FC01AAE3E4
:10134000B3E001900D922A95E1F781E080933A0392
:101350002B8126952695269530E0C901079649E10F
:1013600050E0421B530B6AE373E08C0F9D1F0E94F9
:10137000832081E001C080E0DF91CF911F910F9128
:101380000895209124033091250340912B032817C1
:10139000390741F0407F40932B03909325038093BE
:1013A000240308C091E0940F9F70842F807F892BC5
:1013B00080932B03E0912403F09125030190F081A9
:1013C000E02D309709F009950E94DB156093260304
:1013D00070932703809328039093290308958091A5
:1013E0002B0382958F7090E006971CF080E291E0CD
:1013F000C8CF08950F931F930E94DB150091260319
:10140000109127032091280330912903601B710B51
:10141000820B930B1F910F910895ECDF613D774094
:101420008105910520F480912A0381FF0895809120
:1014300021038F3F81F080912A038E7F80932A03BE
:1014400080E090E0892B21F085E090E00E94000090
:101450008CE191E019C0CEDF613D774081059105B7
:10146000A0F080912B038F7090E003971CF480E232
:1014700091E00AC080E090E0892B21F088E690E0BE
:101480000E94000080E191E07CCF089580912003CC
:101490008F3F59F080E090E0892B21F087E090E0C9
:1014A0000E94000088E191E019C0A4DF613D77400F
:1014B00081059105A0F080912B038F7090E0039738
:1014C0001CF48CE191E00AC080E090E0892B21F0CF
:1014D00089E690E00E94000080E191E052CF0895FB
:1014E00089DF613177428105910518F084E291E04E
:1014F00048CF0895E0912403F09125030280F38101
:10150000E02D309709F00994089580E191E09093DF
:1015100025038093240384E291E033CF8F3F51F081
:1015200080930A0163E082E20E94DD0161E081E2D2
:101530000E94DD010C940302CF93DF931F92CDB77D
:10154000DEB7682F8FEF860F8E3F68F4609320031D
:10155000862F6983E3DF698180E090E00F90DF915F
:10156000CF910C94CF2080E090E0892B21F08CE685
:1015700090E00E94000080E191E00F90DF91CF9118
:1015800000CF80912B038F7080932B0380912A03CF
:10159000877F8F7E80932A0310922D0310922E0353
:1015A00010922F031092300343E050E060E070E0AF
:1015B00080E293E00E94BF200E94A10281110BC033
:1015C00080E090E0892B21F087E690E00E94000007
:1015D00080E191E00CC080912A03806180932A030E
:1015E000809120038F3F09F0A7DF80E291E0C9CE10
:1015F000FC012481229526952770213011F48781E2
:101600000895211103C007960C94372080E00895B7
:10161000EFDF91E0811101C090E0892F0895FC0176
:101620002481229526952770253029F467817085BD
:10163000818592850895211103C007960C9454204A
:1016400060E070E0CB010895CF93DF93EC018C81D3
:101650008F71806C8C83842F90E09C01B3E0220F0B
:10166000331FBA95E1F73B813770322B3B83493109
:1016700010F4AC0102C049E150E0CE0107960E948F
:101680008320CE01DF91CF910895CF92DF92EF9228
:10169000FF92CF93DF937C018FED93E00E940503CF
:1016A000C0E2D0E060E071E080E090E00E946D1563
:1016B000D62E0E94DB156D258FED93E06FDB219711
:1016C000209781F78FED93E0DBDB29E1FC01AAEBAA
:1016D000B3E001900D922A95E1F747E050E06AEA05
:1016E00070E083ED93E00E948C2049E16AEB73E0A7
:1016F000C701AADF81E08093DA030E94DB156B014A
:101700007C016093DB037093DC038093DD03909393
:10171000DE030E94DB1528E8C20E23E1D21EE11C85
:10172000F11CC616D706E806F90640F41092DB0352
:101730001092DC031092DD031092DE0381E0DF9152
:10174000CF91FF90EF90DF90CF9008950F931F936C
:10175000CF93DF93EC016115710561F0FB010190FE
:101760000020E9F73197E61BF70BE931F10518F096
:10177000E9E101C0E0E00E2F10E0C80123E0880F8E
:10178000991F2A95E1F79B819770982B9B838C81F9
:101790008F718C83EE2329F0A801CE0107960E9459
:1017A0009320FE01E00FF11F1782CE01DF91CF9150
:1017B0001F910F910895FC01838187708860838356
:1017C00084818F71806284836783CF010895FC01D7
:1017D00083818770886283838481806E848347835A
:1017E0005087618772872387CF010895FC01848128
:1017F0008F71806A8483838187708062838347834B
:10180000508761877287CF0108956F927F928F9280
:101810009F92AF92BF92CF92DF92EF92FF92CF93BF
:10182000DF934B015C01C42F622E0E94DB156B011C
:101830007C0181E0611080E080930403712CD0E092
:101840000E94DB156C197D098E099F0968157905C1
:101850008A059B0588F471100FC0F7D140910303EE
:10186000477050E04C175D0759F7809104038611CB
:10187000E7CF77247394E4CF872DDF91CF91FF904A
:10188000EF90DF90CF90BF90AF909F908F907F9020
:101890006F9008951F93CF93DF93EC01162F8091E3
:1018A000200389836A838FEF8E838FE08D838C8101
:1018B000807E83608C836EE871E0CE0147DF8B8190
:1018C000877080618B838C818F71806C8C8381E0C9
:1018D0008F831886CE012AD311110AC02FE043E06E
:1018E00060ED77E080E090E0DF91CF911F918DCFA8
:1018F000DF91CF911F91089580E090E0892B21F036
:101900008BE090E00E94000060E08EED92E0C2DF8C
:1019100020E04EE851E061E18FEF28D36091210390
:10192000809120038093DF021092E0028FEF80937A
:10193000E40286E08093E3028091E202807E83608D
:101940008093E2028EED92E036DFF6D226E043E0AD
:1019500060ED77E080E090E058DF8AE290E1892B4B
:1019600009F078C3089590910403809100038111D8
:1019700052C09D30A1F480E090E0892B21F08AE0F4
:1019800090E00E94000028E088E190E00FB6F89413
:10199000A895809360000FBE20936000FFCF9B311D
:1019A00071F48FEF92E034DE8093DD0280E090E00E
:1019B000892B49F189E090E00E94000024C0963014
:1019C00079F48091060361E0882319F08D3409F0E1
:1019D00060E06093230383E091E00E94CF2013C076
:1019E000933111F489DF0FC0923111F4A6D20BC0EC
:1019F000913059F480E090E0892B29F08FEF92E04C
:101A00000EDE0E94000081E008959A30E1F381E04B
:101A10009C3121F404C081E09A3109F080E00895FE
:101A20001F93CF93DF9331DC8FEF92E00E946B0224
:101A300080E090E0892B21F081E090E00E9400009E
:101A400030910303C0910403D09100032091FF0261
:101A50009091010380910203482F4370423061F05E
:101A600080E090E0892B09F4D4C08BE690E0DF9110
:101A7000CF911F910C940000132F177040912003F9
:101A8000941391C0E82FE7708695869586958931E5
:101A900020F4880F880F880F01C088ECE82BE093B2
:101AA0000203E695E695E695F0E0E150FD4F1782DA
:101AB00033FF16C081E2EFEFF2E0AEEDB2E001904D
:101AC0000D928A95E1F78091E202877F8061809391
:101AD000E2029093DF02D093E0028EED92E026D2F4
:101AE0008091030384FD53C0133009F050C08FEF81
:101AF00092E0BCD281118DC0C43039F48FEF92E0F6
:101B000077DDDF91CF911F9117CDC830C1F48FEFF2
:101B100092E06EDD8F3F09F47CC08F5F8F3F09F448
:101B200078C090912203891708F073C090912A031E
:101B300091FD6FC080932203D09321036AC0C83106
:101B4000A1F4809120038093DF02D093E0028FEF15
:101B50008093E40289E18093E3028091E202807E37
:101B600083608093E20261E048C0C93169F48091EA
:101B70002A0383FF4EC0877F80932A038FEF92E072
:101B800037DD80932C0345C0EEDE811142C080E03A
:101B900090E0892B09F43DC08FEF92E0DF91CF9167
:101BA0001F910C9400009F3FA1F5133069F58091BF
:101BB0002A0382FF02C0C73061F1C43151F5809120
:101BC0002103281326C0F7D77370882799270E940E
:101BD0000A1660912103809120038093DF02D09345
:101BE000E0028FEF8093E40285E18093E30280912D
:101BF000E202807E83608093E2028EED92E0DBDD84
:101C0000DF91CF911F910BC180912103281709F417
:101C1000BECFDF91CF911F910895CF93C6E08FEF94
:101C20000E94100290E095958795877099270697F6
:101C300024F4C15011F0F4DEF2CFCF9108955ADCB4
:101C400080912A0384FDE9CF0895A895F8CFCF921B
:101C5000DF92EF92FF921F93CF93DF93EC012A81E3
:101C6000E22FF0E043E0F595E7954A95E1F7EA5178
:101C7000FB4F808190E080959095322F377002C0A5
:101C8000959587953A95E2F799813091200380FFE9
:101C900022C0931320C08C8184FD22C087708330C2
:101CA00099F48D8131EF380F3430D0F03DEF380F9B
:101CB0003230B0F039EF380F323090F0863181F0A9
:101CC0008851833078F40CC0843061F48D81825067
:101CD000843040F405C0391303C08B818B7F8B8324
:101CE00011E04EC01092A4048E819093A60420931C
:101CF000A7048093AB0480E18093AA048091A90497
:101D0000807E83608093A9046EE871E085EA94E0A8
:101D10001DDD0CD1182F882329F14DD76B017C01D3
:101D200081E2FE01A5EAB4E001900D928A95E1F707
:101D300042D76C197D098E099F0968387341810566
:101D4000910530F48091A404811102C07EDFF0CFB0
:101D500032D76C197D098E099F0969387341810555
:101D6000910510F010E00CC08091A4048130D1F7EF
:101D700081E2E5EAF4E0DE0101900D928A95E1F757
:101D8000812FDF91CF911F91FF90EF90DF90CF9047
:101D90000895FF920F931F93CF93DF93F82EEB01DB
:101DA0009B819C7F92609B83809120038883CB01E1
:101DB0004EDF182F811109C020E030E0232B41F1C4
:101DC0008AE690E00E94000023C00B8102FD04C05F
:101DD00006950695069501C000E220E030E0232B31
:101DE00021F080E090E00E940000202F30E02A31B6
:101DF00031051CF447E0400F01C040E2BE018F2DC9
:101E00000E941502811104C011E08FEFF81210E05A
:101E1000812FDF91CF911F910F91FF900895CF9364
:101E2000BC01FC01828190912A0390FF03C08F3F87
:101E300021F505C08F3F19F0C091210301C0CFEFFC
:101E40008C2FA7DF90912103C91318C081110EC0F8
:101E500080E090E0892B21F085E690E00E94000070
:101E600080912B03805F80932B0307C080912B030D
:101E70008F7080932B0381E001C080E0CF910895A3
:101E800080912A038D7F90912B039F7090932B0359
:101E900081608B7F80932A038FEF8093220380934E
:101EA000210380E090E0892B21F084E090E00E9403
:101EB0000000809120038093DF028FEF8093E00287
:101EC0008093E40287E08093E3028091E202807EC7
:101ED00083608093E2026EE871E08EED92E036DC82
:101EE0009ECF809120038F3F01F580E090E0892B09
:101EF00021F086E090E00E94000080912003809312
:101F0000DF021092E0028FEF8093E40283E080937F
:101F1000E3028091E202807E83608093E2026EE8B9
:101F200071E08EED92E012DC7ACF089520912A03C1
:101F300022FD75CF80E00895F9CF5CDAAB01BC01DA
:101F4000809120038093DF021092E0028FEF809354
:101F5000E40286E18093E302E2EEF2E08081807E9B
:101F6000836080838EED92E041DCE6CF962F8F3F39
:101F700019F46DE271E001C0BA0130912003309391
:101F8000DF021092E0028093E4029093E30288E083
:101F9000289F900111248091E202807F822B8F7E06
:101FA0008093E2028EED92E0D1DBC6CF0F931F93B8
:101FB000CF93DF931F92CDB7DEB78B010097F9F077
:101FC000209120032093DF021092E0022FEF209354
:101FD000E4022BE02093E3025091E202507F536031
:101FE00068E0469F90011124522B5F7E5093E202DD
:101FF000BC018EED92E04983A9DB9EDF498101158A
:10200000110511F1809120038093DF021092E0020C
:102010008FEF8093E4028CE08093E3028091E202F0
:10202000807F836098E0499FA0011124842B8F7EDC
:102030008093E202B8018EED92E088DB0F90DF9191
:10204000CF911F910F9178CF0F90DF91CF911F917A
:102050000F91089540E068E371E085E491E0A6DF28
:1020600020E044E551E06DE080E080CFCF93DF9346
:10207000EC0129818C818770833009F076C08D81D5
:102080008031A9F4CE0101DB882379F08981909118
:10209000200399838A838FEF8E8381E18D838C81E6
:1020A000807E83608C83CE0141DF81E05FC08F3012
:1020B00009F049C08F818130C1F73885E22FF0E007
:1020C0002770DF0163E0B595A7956A95E1F7AA51FE
:1020D000BB4F81E090E0022E01C0880F0A94EAF71E
:1020E00030FF05C080959C9189238C9303C09C91FF
:1020F000982B9C9353E0F595E7955A95E1F7EA53B1
:10210000FB4F81E090E0022E01C0880F0A94EAF7AD
:1021100031FF05C0809590818923808303C0908121
:10212000982B908340E250E063E271E086EE94E009
:102130000E94E12040E250E063E471E086EC94E02C
:102140000E94E120B2CF813181F48091A70428134D
:10215000ACCFCE019BD885EA94E0A9D8882309F4B6
:10216000A4CF91E09093A40401C080E0DF91CF91CF
:10217000089520912003FC0121832481207F216088
:10218000F8E06F9FB0011124262BFC0124832091DD
:10219000DD022111CBCE80E00895CF92DF92EF9245
:1021A000FF928091B60181110AC01092970110929E
:1021B0009B0182E180939A0181E08093B60168ECF3
:1021C00075E08EEB91E00E949D1C20E030E040EF36
:1021D00052E40E94271F2091910130919201409179
:1021E0009301509194010E94CD1D6B017C0160937D
:1021F0009101709392018093930190939401609167
:1022000090016F5F609390016730B0F170E080E003
:1022100090E00E949B1E9B01AC01C701B6010E9489
:10222000311EAB01BC014093910150939201609328
:1022300093017093940121E085E991E0C8DA60E0B0
:1022400098DFE091AC02F091AD020280F381E02DC5
:1022500065E070E08CEA92E009951092910110928D
:102260009201109293011092940110929001FF90AC
:10227000EF90DF90CF900895E0917D02F0917E0283
:102280000280F381E02D65E070E08DE792E0FF9041
:10229000EF90DF90CF9009946F927F928F929F92F0
:1022A000AF92BF92CF92DF92EF92FF92CF93DF93E4
:1022B0004B015C01C42F622E7ED46B017C0181E056
:1022C000611080E080930403712CD0E074D46C1909
:1022D0007D098E099F09681579058A059B05A8F473
:1022E000711013C080912A0384FD97DC4091030391
:1022F000477050E04C175D0749F77724739480913D
:102300000403861519F3712CE1CF872DDF91CF914E
:10231000FF90EF90DF90CF90BF90AF909F908F9005
:102320007F906F90089590912A0393FD2DC0209186
:102330002003821759F1986090932A039FEF90939E
:102340002C032093DF028093E0029093E40288E163
:102350008093E3028091E202807E83608093E202B8
:1023600061E08EED92E027DA5ADD29E143E060ED8D
:1023700077E080E090E090DF80912A03877F809370
:102380002A0380912C0308958FEF089580E008952B
:102390000F931F93811112C00ED400912D03109141
:1023A0002E0320912F0330913003601B710B820BA1
:1023B000930B603177428105910598F080E0B3DF9F
:1023C000182F8F3F81F0F7D360932D0370932E0366
:1023D00080932F039093300380912203181310935E
:1023E000220381E001C080E01F910F91089581E0F8
:1023F000CFDF882319F084E191E002C080E291E010
:102400000C94C1091F93CF93DF9380E090E0892B58
:1024100021F088E090E00E94000081E08093DD02DE
:10242000C4E0DFEF1AE1809120038093DF02109275
:10243000E002D093E4021093E3028091E202807EF6
:1024400083608093E20262E08EED92E0B4D974DDA5
:102450002BE143E060ED77E080E090E0D6D9811198
:1024600002C0C15001F7DF91CF911F910895FC0187
:102470008AE1DF011D928A95E9F781E086838FEF7B
:1024800087838587868784E791E091838083089599
:1024900040E066E070E08CEA92E0C9D542E350E0AB
:1024A00060E070E00AD661E070E010D640E067E0DE
:1024B00070E08DE792E0BBD542E350E060E070E071
:1024C000FCD561E070E002D640E068E070E08EE4A8
:1024D00092E0ADD542E350E060E070E0EED561E01F
:1024E00070E0F4D56CEA72E08BED92E0EAD66DE72D
:1024F00072E0E7D66EE472E0E4C621E030E040E14D
:1025000057E260E070E08AE192E053D66FEF7FEF30
:1025100045D640E050E06DEC70E133D6DC01ED9142
:10252000FC910280F381E02D65E070E00995B0DF59
:102530006AE172E08BED92E0C4D661E084E088D479
:1025400061E084E0BED42DEC3CEC45EB52E464E069
:1025500070E08EEB91E00C94681C26E040E056E9B8
:1025600060E070E086E095E03AD180E090E0892B71
:1025700011F00E9400000E94F40841E050E063E086
:1025800071E083E293E00E94BF206FEF81E090E072
:102590000E94CF200E94850A80912A0382FD03C0F9
:1025A000A8954DDBF9CF8DE792E1892B09F0A5DFE6
:1025B000A3D928CF6FD3D1DFC2E6D1E00CE313E17A
:1025C00044DB209711F00E94620101151105C1F34F
:1025D00053D0F6CF1092A704109201031092E0029C
:1025E0008CEA92E044DF8DE792E041DF8EE492E0F6
:1025F0003EDFEAE1F2E08AE1DF011D928A95E9F728
:1026000081E0809320028FEF809321028093270244
:102610008093280280E891E0918380830895FC01F3
:10262000818D228D90E0805C9F4F821B91098F737A
:1026300099270895FC01918D828D981731F0828D34
:10264000E80FF11D858D90E008958FEF9FEF0895BD
:10265000FC01918D828D981761F0828DDF01A80FAA
:10266000B11D5D968C91928D9F5F9F73928F90E0CC
:1026700008958FEF9FEF089582EA94E1892B41F04E
:1026800080E090E0892B21F05DD181110C94000055
:102690000895FC01848DDF01A80FB11DA35ABF4F1F
:1026A0002C91848D90E001968F739927848FA68951
:1026B000B7892C93A089B1898C9180648C93938D78
:1026C000848D981306C00288F389E02D80818F7D68
:1026D00080830895CF93DF93EC01888D8823C1F028
:1026E000EA89FB89808185FD05C0A889B9898C911B
:1026F00086FD0EC00FB607FCF5CF808185FFF2CFB7
:10270000A889B9898C9185FFEDCFCE01C2DFE8CFD2
:10271000DF91CF910895CF92DF92FF920F931F9395
:10272000CF93DF931F92CDB7DEB76C0181E0D60166
:1027300058968C9358975B969C915B975C968C917E
:102740005C97981307C05096ED91FC91519780814A
:1027500085FD2DC0F601038D10E00F5F1F4F0F7335
:102760001127F02EF601848DF81210C00FB607FC69
:10277000F9CFD6015096ED91FC915197808185FF5C
:10278000F1CFC601698385DF6981ECCF838DE80FC6
:10279000F11DE35AFF4F6083D6015B960C935B9764
:1027A0005296ED91FC915397808180620CC0D601C6
:1027B0005696ED91FC91579760835096ED91FC9160
:1027C000519780818064808381E090E00F90DF9159
:1027D000CF911F910F91FF90DF90CF900895BF92FE
:1027E000CF92DF92EF92FF92CF93DF93EC016A01D9
:1027F0007B01B22E60E874E88EE190E0A7019601BB
:102800000E94681D2150310941095109569547958B
:1028100037952795E889F98982E08083211580E141
:10282000380798F0E889F989108260E472E48FE053
:1028300090E0A70196010E94681D215031094109CD
:1028400051095695479537952795EC85FD85308339
:10285000EE85FF852083188EEC89FD89B082EA8998
:10286000FB89808180618083EA89FB89808188601F
:102870008083EA89FB89808180688083EA89FB897B
:1028800080818F7D8083DF91CF91FF90EF90DF90EB
:10289000CF90BF9008951F920F920FB60F92112400
:1028A0002F938F939F93EF93FF93E0911605F091F1
:1028B00017058081E0911C05F0911D0582FD12C075
:1028C000908180911F058F5F8F7320912005821763
:1028D00051F0E0911F05F0E0EA5FFA4F958F809389
:1028E0001F0501C08081FF91EF919F918F912F91E2
:1028F0000F900FBE0F901F9018951F920F920FB65A
:102900000F9211242F933F934F935F936F937F9375
:102910008F939F93AF93BF93EF93FF9386E095E0E0
:10292000B8DEFF91EF91BF91AF919F918F917F9111
:102930006F915F914F913F912F910F900FBE0F902C
:102940001F90189586E095E06ADE21E0892B09F456
:1029500020E0822F0895109209051092080588EE54
:1029600093E0A0E0B0E080930A0590930B05A0935C
:102970000C05B0930D0584E691E0909307058093D4
:10298000060585EC90E0909313058093120584EC86
:1029900090E0909315058093140580EC90E090935F
:1029A00017058093160581EC90E0909319058093AC
:1029B000180582EC90E090931B0580931A0586EC35
:1029C00090E090931D0580931C0510921F051092B6
:1029D000200510922105109222050895CF92DF92D2
:1029E000EF92FF920F931F93CF93DF937C016A01C5
:1029F000EB0100E010E00C151D0571F06991D701A5
:102A0000ED91FC910190F081E02DC7010995892B92
:102A100019F00F5F1F4FEFCFC801DF91CF911F91CA
:102A20000F91FF90EF90DF90CF90089508951F923F
:102A30000F920FB60F9211242F933F934F935F93F2
:102A40006F937F938F939F93AF93BF93EF93FF9376
:102A5000E0912801F09129010995FF91EF91BF9133
:102A6000AF919F918F917F916F915F914F913F9126
:102A70002F910F900FBE0F901F9018951F920F92DD
:102A80000FB60F9211242F933F934F935F936F9341
:102A90007F938F939F93AF93BF93EF93FF93E091B7
:102AA0002A01F0912B010995FF91EF91BF91AF9110
:102AB0009F918F917F916F915F914F913F912F9156
:102AC0000F900FBE0F901F9018956115710581052D
:102AD000910511F00C942E200895CF93DF9300D030
:102AE00000D0CDB7DEB79B01AC0161157105810542
:102AF000910569F069833A834B835C830E942B20A4
:102B000029813A814B815C810E948A1D03C060E06B
:102B100070E0CB010F900F900F900F90DF91CF914D
:102B200008951F920F920FB60F9211242F933F9387
:102B30008F939F93AF93BF938091A4059091A50528
:102B4000A091A605B091A7053091A30526E0230F1B
:102B50002D3720F40296A11DB11D05C029E8230FD1
:102B60000396A11DB11D2093A3058093A405909306
:102B7000A505A093A605B093A7058091A8059091FF
:102B8000A905A091AA05B091AB050196A11DB11DA3
:102B90008093A8059093A905A093AA05B093AB05CF
:102BA000BF91AF919F918F913F912F910F900FBE49
:102BB0000F901F9018952FB7F8946091A40570910D
:102BC000A5058091A6059091A7052FBF08953FB751
:102BD000F8948091A8059091A905A091AA05B091BB
:102BE000AB0526B5A89B05C02F3F19F00196A11D86
:102BF000B11D3FBF6627782F892F9A2F620F711D55
:102C0000811D911D43E0660F771F881F991F4A950C
:102C1000D1F708958F929F92AF92BF92CF92DF9299
:102C2000EF92FF926B017C01D2DF4B015C01C1147A
:102C3000D104E104F104E1F079D1C9DF681979091F
:102C40008A099B09683E73408105910580F321E064
:102C5000C21AD108E108F10888EE880E83E0981EB8
:102C6000A11CB11CC114D104E104F10431F7DFCF80
:102C7000FF90EF90DF90CF90BF90AF909F908F909C
:102C800008958330910528F0880F991F04970197C4
:102C9000F1F70895789484B5826084BD84B581602D
:102CA00084BD85B5826085BD85B5816085BDEEE654
:102CB000F0E0808181608083E1E8F0E01082808133
:102CC00082608083808181608083E0E8F0E08081A1
:102CD00081608083E1EBF0E0808184608083E0EBC1
:102CE000F0E0808181608083EAE7F0E080818460A9
:102CF000808380818260808380818E7F80838081D9
:102D0000806880831092C10008958E3008F08E5044
:102D1000877020912C0190E4299F90011124822B2F
:102D200080937C0080917A00806480937A00809107
:102D30007A0086FDFCCF809178002091790090E0A8
:102D4000922B08951F93CF93DF93182FEB0161E02F
:102D50007FD0209711F460E004C0CF3FD10531F45B
:102D600061E0812FDF91CF911F91ABC0E12FF0E0A7
:102D7000E857FE4FE491E330F9F048F4E130B9F060
:102D8000E230A1F584B5806284BDC8BD34C0E730AF
:102D9000E9F0E83019F1E43049F580918000806273
:102DA00080938000D0938B00C0938A0024C084B5A8
:102DB000806884BDC7BD1FC08091800080688093FB
:102DC0008000D0938900C093880015C08091B00026
:102DD00080688093B000C093B3000DC08091B000B4
:102DE00080628093B000C093B40005C0C038D105A4
:102DF0000CF0B6CFB0CFDF91CF911F910895833003
:102E000081F028F4813099F08230A1F00895873064
:102E1000A9F08830B9F08430D1F4809180008F7DA2
:102E200003C0809180008F7780938000089584B5DF
:102E30008F7702C084B58F7D84BD08958091B000E6
:102E40008F7703C08091B0008F7D8093B00008958C
:102E5000CF93DF9390E0FC01E456FE4F2491FC01F8
:102E6000E055FE4F8491882349F190E0880F991F27
:102E7000FC01E253FE4FA591B4918C539E4FFC018F
:102E8000C591D4919FB7611108C0F8948C91209599
:102E900082238C93888182230AC0623051F4F89493
:102EA0008C91322F309583238C938881822B888359
:102EB00004C0F8948C91822B8C939FBFDF91CF91AB
:102EC00008950F931F93CF93DF931F92CDB7DEB773
:102ED000282F30E0F901E857FE4F8491F901E456BC
:102EE000FE4F1491F901E055FE4F04910023C1F00B
:102EF000882319F0698383DF6981E02FF0E0EE0F0A
:102F0000FF1FEC53FE4FA591B4919FB7F8948C919D
:102F1000611103C01095812301C0812B8C939FBF49
:102F20000F90DF91CF911F910F9108950895CF9346
:102F3000CFB7F8948091AF05811123C0EAEBF1E09F
:102F40008491E6EAF1E09491E82FF0E0EE0FFF1FA4
:102F5000E253FE4FA591B4918C91892319F461E05D
:102F60008AE0AFDF61E08AE073DF8CB580618CBD01
:102F70008CB580648CBD61E08DE06ADF61E08BE040
:102F800067DF8091AF058F5F8093AF05CFBFCF9193
:102F90000895CF93DF93EC0161307105C1F044F4E3
:102FA000672B69F56E8D7F8D8896DF91CF913EC43A
:102FB0006230710581F06330710509F520E040E071
:102FC00050E060E070E08A96DF91CF91F0C38D8D84
:102FD000882331F00DC088962DD48D8D882341F043
:102FE0006A8D6F3F39F461E08B8DDF91CF9169CFAE
:102FF00060E0FACF70E08B8DDF91CF91A3CEDF91AF
:10300000CF9108956130710541F06230710541F052
:10301000672B51F4BC01809602C0BC01849629C480
:10302000889619D490E0089580E090E00895FF928A
:103030000F931F93CF93DF93EC01062FF72E142FDE
:1030400048E050E068ED71E054D10B8FFC8E1D8F8D
:103050008FEF8A8F61E0802FFBDE612F8B8D31DF58
:1030600044EF51E060E070E0CE018096FCD344EF85
:1030700051E060E070E0CE018496F5D38FEF9FEFD2
:103080009F8F8E8F6FEF7FEFCE018896CFD3E88131
:10309000F9810190F081E02DCE010995892B31F065
:1030A00040E050E0BA01CE0157D1F1CFCE01DF911F
:1030B000CF911F910F91FF900895CF93DF93EC0173
:1030C0008096D1D3CE01DF91CF910895CF93DF9336
:1030D000EC017F8F6E8F8896A9D3CE01DF91CF91BF
:1030E00008956130710591F024F4672B91F4829674
:1030F00007C06230710539F06330710551F4849670
:10310000AAD390E00895BC014E9602C0BC014A9635
:10311000B0C380E090E00895CF93DF93EC0161307D
:103120007105E9F034F4672B49F56EA17FA1829611
:1031300022C06230710579F063307105F9F420E046
:1031400040E050E060E070E08F9631D368A579A54B
:10315000CE01849610C08296DF91CF916BC3849686
:1031600069D36CA17DA120E040E050E0CE018A96B9
:10317000DF91CF911CC3DF91CF9158C3DF91CF91E5
:1031800008950F93CF93DF93EC0100E020E08A963F
:1031900038D3CE01DF91CF910F910895CF93DF9374
:1031A000EC0179A768A7849641D3CE01DF91CF9136
:1031B0000895CF92DF92EF92FF920F931F93CF93D8
:1031C000DF93EC016A017B01890147E050E060E296
:1031D00072E08FD040E05CE566E275E0CE014A9691
:1031E00042D3B701A601CE014E963DD31FA21EA227
:1031F00060E070E0CE01829619D319A708A7B80144
:10320000CE01CCDFCE01DF91CF911F910F91FF90C6
:10321000EF90DF90CF900895FB0120853185232B1F
:1032200011F0442349F0FC0120813181FB013187F9
:103230002087FC017183608308950F931F93CF93C0
:10324000DF938C01FC01C081D181209761F08E81D8
:10325000837029F440E050E0BA01CE017DD00884AB
:10326000D985C02DF2CFC801DF91CF911F910F9169
:1032700008958F929F92AF92BF92CF92DF92EF927A
:10328000FF92CF93DF93EC016A017B0194DC4B0149
:103290005C01CE01D2DF8FDC681979098A099B09AC
:1032A0006C157D058E059F05A0F3CE01DF91CF91B2
:1032B000FF90EF90DF90CF90BF90AF909F908F9056
:1032C0000895FC0120813181FB0131872087FC01B9
:1032D000718360830895CF93DF93EC01CADFCE0141
:1032E000DF91CF910895FC018585992787FD909501
:1032F0000895CF93DF93EC017B876A874C5F498BFE
:103300008E818E7F8E8340E0BE0180EB95E084DF6E
:103310008FEF8D87CE01DF91CF9108956F3F8FEFB3
:103320007807A9F061157105A9F0FA0120E030E0F5
:10333000CF01841B950BA191A111FACF2F5F3F4FB5
:1033400026173707A9F70196840F951F089588E877
:1033500091E00895CA0108952F923F924F925F9293
:103360006F927F928F929F92AF92BF92CF92DF9295
:10337000EF92FF920F931F93CF93DF93CDB7DEB7FA
:103380002B970FB6F894DEBF0FBECDBF9B878A8701
:1033900049835A836B837C830EDC2B013C01AA8515
:1033A000BB8516962C911697822F837009F08AC1DF
:1033B00056968D919D910D90BC91A02D0196A11DC9
:1033C000B11DEA85FB85868B978BA08FB18F22601C
:1033D000268384858F3F09F4FAC0DF010190F081D4
:1033E000E02D0680F781E02D6DEF7FEFCD0109958F
:1033F000EA85FB85228833882114310409F46AC0E8
:1034000026892D8337893E83208D2F83318D388700
:10341000D2DB5B016C01EA85FB8582819381A4810B
:10342000B581A81AB90ACA0ADB0A8784908866851A
:103430006F3F31F0772767FD70956F5F7F4F02C058
:103440006FEF7FEFA4018A859B8568DF7C01AA85E9
:10345000BB851C968C911C978F3F51F051966C91B7
:1034600070E0680F711D87FD7A956250710902C086
:103470006FEF7FEFA4018A859B8550DF8C01EA8581
:10348000FB8585858F3F49F0618970E0680F711D6C
:1034900087FD7A956250710902C06FEF7FEFA4013A
:1034A0008A859B853BDF28852F933F813F932E8123
:1034B0002F933D813F939C01A4016A857B85DB01AD
:1034C00054968D919C915597F10109950F900F900D
:1034D0000F900F90AA85BB851D962C911D9727FDF7
:1034E0001CC051963C9151972303C00111240296B0
:1034F0001A96ED91FC911B97E80FF91F6491EA85EC
:10350000FB85A081B181772767FD70951696ED91B7
:10351000FC9117978A859B850995AA85BB851C9682
:103520008C911C971D968C931D97EFEF1C96EC9336
:1035300042DBAA85BB8512966D937D938D939C93F8
:1035400015971D962C911D9751963C9151972303E9
:10355000C00111241A96ED91FC911B97E80FF91FF9
:103560006491EA85FB85A081B181772767FD70951D
:103570001696ED91FC9117978A859B850995AA85EA
:10358000BB851D962C911D9751963C915197230315
:10359000C001112401961A96ED91FC911B97E80F3A
:1035A000F91FE49116968C911697EE3F21F48160F5
:1035B00016968C9304C08E7FEA85FB858683AA8548
:1035C000BB8556961D921D921D921C925997EA85B5
:1035D000FB85258531892303C001112401960284CE
:1035E000F385E02DE80FF91F64916F3F71F0EA85D4
:1035F000FB85A081B181772767FD70951696ED91C7
:10360000FC9117978A859B85099543E0642F77275E
:1036100067FD7095AA85BB8551965C91252F30E09A
:10362000621773070CF049C0AA85BB851D961C91D3
:103630001D971503C0011124860F971F1A96ED914F
:10364000FC911B97E80FF91FF490BFEFFB1609F4EC
:1036500063C02150310962177307E1F08B010350F9
:103660001109AA85BB85ED91FC9111970480F58124
:10367000E02DB801CD01498709954985892B51F481
:10368000EA85FB858781992787FD909580179107AB
:1036900009F042C0AA85BB851C96FC921C97169621
:1036A0008C9116978E7F16968C93169743501E9684
:1036B0004C931E97EFEF1796EC93EA85FB85868176
:1036C0008D7F868378DA64197509860997092981BF
:1036D0003A814B815C81621773078407950708F470
:1036E0005ECE8A859B852B960FB6F894DEBF0FBE03
:1036F000CDBFDF91CF911F910F91FF90EF90DF90A1
:10370000CF90BF90AF909F908F907F906F905F9081
:103710004F903F902F9008954F5F78CFEF92FF9298
:103720000F931F93CF93DF93EC017B0108E010E030
:103730008E818E7F8E8340E050E0BA01CE010CDE98
:103740002D8539892303C00111248E0D9F1D0396F9
:10375000EA85FB85E80FF91FE491FF27E7FDF09567
:10376000015011090115110539F0EF3F8FEFF807EE
:10377000F9F28F818F3FE1F6F7FD11C0EF828E8164
:103780008E7F8E8340E050E0BA01CE01E5DD8E8170
:103790008E7F8E8340E050E0BA01CE01DDDDCE01A8
:1037A000DF91CF911F910F91FF90EF900895CF93EC
:1037B000DF93DC018C918770813091F08330D9F4F4
:1037C00011968D919C911297EC01E881F9811396E5
:1037D0006D917C9114970280F381E02D09950BC0C7
:1037E00021110BC01196ED91FC91129713968D91BA
:1037F0009C911497099581E001C080E0DF91CF9101
:1038000008950F931F93FC0180E2080280011124A8
:10381000016088E0280290011124022B008372834A
:103820006183548343831F910F910895FC01718339
:1038300060830895FC0120813181215031092E3FA0
:10384000FFEF3F0728F4FC0131832083C90108956D
:1038500080E090E00895FC0181E020813181232BFC
:1038600009F080E00895FC014083518362837383F3
:1038700008950F931F93CF93DF93EC018B01888101
:103880009981AA81BB818F3F9F4FAF4FBF4FC9F036
:1038900092D9F8010281138124813581601B710B5B
:1038A000820B930B51E040E0088119812A813B8112
:1038B000601771078207930708F450E0852F942F53
:1038C00002C080E090E0DF91CF911F910F910895A9
:1038D000FC01778B668B248F358F468F578F40E0A6
:1038E00050E060E074E440AF51AF62AF73AF089551
:1038F0008EE480937C0062E070E080E090E08AD902
:1039000080917A00806480937A0080917A0086FDAD
:10391000FCCF809178002091790030E0322F22276F
:10392000442737FD4095542F282B60E070E381E158
:1039300090E0F0D0CA01B90108952F923F924F92C2
:103940005F926F927F928F929F92AF92BF92CF922F
:10395000DF92EF92FF920F931F93CF93DF9300D0EC
:1039600000D000D0CDB7DEB79E838D837A83698384
:10397000BFDF2B013C0100E010E08D819E81845B64
:103980009F4F1C01ED81FE81E85BFF4FFC83EB83C1
:1039900089819A810817190709F44DC0ED81FE81CC
:1039A0008689B3D9ED81FE8197A386A3BC018827C0
:1039B00077FD8095982FBFD16B017C01ED81FE8151
:1039C00080AC91ACA2ACB3ACA5019401E5D020E0F1
:1039D00030E040E85AE33BD29B01AC01C501B401A1
:1039E000DCD09B01AC01ED81FE8160AF71AF82AF95
:1039F00093AFC701B601D0D0ED81FE8160AB71AB52
:103A000082AB93AB9B01AC0122D29B01AC01EB8159
:103A1000FC816083718382839383F1016081718172
:103A200082819381BAD0F101608371838283938311
:103A30000F5F1F4FADCFB80180E090E07AD19B01BE
:103A4000AC01F10160817181828193810AD166D2DA
:103A50006B017C01B201882777FD8095982F6BD18F
:103A600020E030E04AE754E4FCD020E030E040E8D9
:103A70005AE3EDD1ED81FE81248D358D468D578D34
:103A8000E6D1A7019601E3D1ED81FE81608B718BB8
:103A9000828B938BF10110821182128213822696FF
:103AA0000FB6F894DEBF0FBECDBFDF91CF911F914F
:103AB0000F91FF90EF90DF90CF90BF90AF909F90CD
:103AC0008F907F906F905F904F903F902F900895D0
:103AD000A1E21A2EAA1BBB1BFD010DC0AA1FBB1F12
:103AE000EE1FFF1FA217B307E407F50720F0A21B84
:103AF000B30BE40BF50B661F771F881F991F1A94F1
:103B000069F760957095809590959B01AC01BD011A
:103B1000CF010895052E97FB16F400940FD057FDA2
:103B200005D0D6DF07FC02D046F408C0509540957A
:103B3000309521953F4F4F4F5F4F08959095809559
:103B4000709561957F4F8F4F9F4F089569279627F6
:103B5000692778278727782708950FD0A59F900D8C
:103B6000B49F900DA49F800D911D11240895EE0F18
:103B7000FF1F0590F491E02D0994A29FB001B39F1F
:103B8000C001A39F700D811D1124911DB29F700D66
:103B9000811D1124911D08955058BB27AA270ED0CE
:103BA0001CC10DD130F012D120F031F49F3F11F43F
:103BB0001EF402C10EF4E095E7FBF8C0E92F1ED118
:103BC00080F3BA17620773078407950718F071F43A
:103BD0009EF536C10EF4E0950B2EBA2FA02D0B01E9
:103BE000B90190010C01CA01A0011124FF27591B42
:103BF00099F0593F50F4503E68F11A16F040A22F48
:103C0000232F342F4427585FF3CF469537952795B8
:103C1000A795F0405395C9F77EF41F16BA0B620BB7
:103C2000730B840BBAF09150A1F0FF0FBB1F661FFE
:103C3000771F881FC2F70EC0BA0F621F731F841F41
:103C400048F4879577956795B795F7959E3F08F067
:103C5000B3CF9395880F08F09927EE0F9795879526
:103C600008950CD0BAC0B2D040F0A9D030F021F401
:103C70005F3F19F09BC05111E4C09EC0BFD098F3C4
:103C80009923C9F35523B1F3951B550BBB27AA27DD
:103C900062177307840738F09F5F5F4F220F331F4F
:103CA000441FAA1FA9F333D00E2E3AF0E0E830D01B
:103CB00091505040E695001CCAF729D0FE2F27D01E
:103CC000660F771F881FBB1F261737074807AB07EC
:103CD000B0E809F0BB0B802DBF01FF2793585F4F61
:103CE0002AF09E3F510568F061C0ABC05F3FECF326
:103CF000983EDCF3869577956795B795F7959F5F26
:103D0000C9F7880F911D9695879597F90895E1E079
:103D1000660F771F881FBB1F621773078407BA07D8
:103D200020F0621B730B840BBA0BEE1F88F7E09533
:103D30000895E89409C097FB3EF49095809570959E
:103D400061957F4F8F4F9F4F9923A9F0F92F96E9E7
:103D5000BB279395F695879577956795B795F1115C
:103D6000F8CFFAF4BB0F11F460FF1BC06F5F7F4FF9
:103D70008F4F9F4F16C0882311F096E911C077230B
:103D800021F09EE8872F762F05C0662371F096E814
:103D9000862F70E060E02AF09A95660F771F881FE3
:103DA000DAF7880F9695879597F9089597F99F67A1
:103DB00080E870E060E008959FEF80EC08950024B3
:103DC0000A941616170618060906089500240A9480
:103DD00012161306140605060895092E0394000C06
:103DE00011F4882352F0BB0F40F4BF2B11F460FF95
:103DF00004C06F5F7F4F8F4F9F4F089557FD9058BE
:103E0000440F551F59F05F3F71F04795880F97FB9E
:103E1000991F61F09F3F79F0879508951216130658
:103E20001406551FF2CF4695F1DF08C01616170687
:103E30001806991FF1CF86957105610508940895BC
:103E4000E894BB2766277727CB0197F908950BD015
:103E5000C4CFB5DF28F0BADF18F0952309F0A6CF5C
:103E6000ABCF1124EECFCADFA0F3959FD1F3950F0E
:103E700050E0551F629FF001729FBB27F00DB11DEE
:103E8000639FAA27F00DB11DAA1F649F6627B00D7E
:103E9000A11D661F829F2227B00DA11D621F739F67
:103EA000B00DA11D621F839FA00D611D221F749F75
:103EB0003327A00D611D231F849F600D211D822FBC
:103EC000762F6A2F11249F5750408AF0E1F0882303
:103ED0004AF0EE0FFF1FBB1F661F771F881F915010
:103EE0005040A9F79E3F510570F060CFAACF5F3FC9
:103EF000ECF3983EDCF3869577956795B795F79543
:103F0000E7959F5FC1F7FE2B880F911D96958795CA
:103F100097F9089511F40EF44FCF3EC077DFD0F338
:103F20009923D9F3CEF39F57550B87FF43D0002435
:103F3000A0E640EA900180585695979528F4805C59
:103F4000660F771F881F20F026173707480730F4C1
:103F5000621B730B840B202931294A2BA6951794D9
:103F60000794202531254A2758F7660F771F881FA9
:103F700020F026173707480730F4620B730B840BC9
:103F8000200D311D411DA09581F7B901842F915855
:103F9000880F9695879508959F3F31F0915020F4B2
:103FA000879577956795B795880F911D9695879515
:103FB00097F9089591505040660F771F881FD2F7E8
:103FC00008958F929F92AF92BF92CF92DF92EF921D
:103FD000FF92CF93DF93EC01688179818A819B8185
:103FE000611571058105910521F464E279ED8BE598
:103FF00097E02DE133EF41E050E08CDD49015A01BB
:104000009B01AC01A7EAB1E4A8DD6B017C01ACEE39
:10401000B4EFA5019401EED0C60ED71EE81EF91E1E
:10402000F7FE06C081E0C81AD108E10880E8F80A66
:10403000C882D982EA82FB82C701B6019F77DF91ED
:10404000CF91FF90EF90DF90CF90BF90AF909F9077
:104050008F900895B6CF86E091E0B3CF60930601CC
:104060007093070180930801909309010895FC0162
:1040700088279927E89421912032E9F3293010F01C
:104080002E30C8F32B3239F02D3231F4689403C04E
:104090006ED0820F911D219120532A30C8F31EF457
:1040A000909581959F4F08951F93FC01992788272C
:1040B000BC01E89411911032E9F3193010F01E3070
:1040C000C8F31B3249F01D3241F4689405C03AD060
:1040D000610F711D811D911D119110531A30B8F39C
:1040E0003EF490958095709561957F4F8F4F9F4FCF
:1040F0001F910895FB01DC0102C005900D92415013
:104100005040D8F70895FB01DC0102C001900D92E8
:1041100041505040D8F70895DC0101C06D934150E3
:104120005040E0F70895FB01DC014150504048F059
:1041300001900D920020C9F701C01D9241505040DE
:10414000E0F70895592F482F372F262F660F771F36
:10415000881F991F660F771F881F991F620F731F93
:10416000841F951F660F771F881F991F08957AE097
:10417000979F902D879F802D910D11240895DC012C
:10418000CB01FC01F999FECF06C0F2BDE1BDF89A62
:10419000319600B40D9241505040B8F70895262F43
:1041A000F999FECF92BD81BDF89A019700B402162D
:1041B00039F01FBA20BD0FB6F894FA9AF99A0FBEDB
:1041C0000895DC01CB0102C02D9105D04150504033
:1041D000D8F70895262FF999FECF1FBA92BD81BD59
:1041E00020BD0FB6F894FA9AF99A0FBE0196089579
:1041F000B7FFB3CCB2DC821B930B0895F894FFCFCA
:104200000000B205200001000000FF00FCE1A8A8AA
:10421000F401700A5C01EF09F7110000710F460A02
:10422000400F0D0AC10A00001615161501322E3076
:104230002E302D6265746100322E302E302E432DCB
:104240006265746100456E65726779204D6F6E69B5
:10425000746F720057686F6C6520486F75736500E6
:10426000000000008B13EE140F1328131A136A13A7
:104270000000000073198E1B0218C917000000000F
:1042800073198E1B71188C182A4E4F4E452A000048
:00000001FF